{"contracts/CaptureTheFlag.sol":{"CaptureTheFlag":{"abi":[{"inputs":[{"internalType":"address","name":"forwarder","type":"address"}],"stateMutability":"nonpayable","type":"constructor"},{"anonymous":false,"inputs":[{"indexed":false,"internalType":"address","name":"previousHolder","type":"address"},{"indexed":false,"internalType":"address","name":"currentHolder","type":"address"}],"name":"FlagCaptured","type":"event"},{"inputs":[],"name":"captureTheFlag","outputs":[],"stateMutability":"nonpayable","type":"function"},{"inputs":[],"name":"currentHolder","outputs":[{"internalType":"address","name":"","type":"address"}],"stateMutability":"view","type":"function"},{"inputs":[],"name":"getTrustedForwarder","outputs":[{"internalType":"address","name":"forwarder","type":"address"}],"stateMutability":"view","type":"function"},{"inputs":[{"internalType":"address","name":"forwarder","type":"address"}],"name":"isTrustedForwarder","outputs":[{"internalType":"bool","name":"","type":"bool"}],"stateMutability":"view","type":"function"},{"inputs":[],"name":"versionRecipient","outputs":[{"internalType":"string","name":"","type":"string"}],"stateMutability":"view","type":"function"}],"devdoc":{"kind":"dev","methods":{"getTrustedForwarder()":{"returns":{"forwarder":"The address of the Forwarder contract that is being used."}},"isTrustedForwarder(address)":{"params":{"forwarder":"The address of the Forwarder contract that is being used."},"returns":{"_0":"isTrustedForwarder `true` if the Forwarder is trusted to forward relayed transactions by this Recipient."}}},"version":1},"evm":{"bytecode":{"linkReferences":{},"object":"600180546001600160a01b031916905560c060405260056080819052640332e302e360dc1b60a09081526100369160029190610083565b5034801561004357600080fd5b506040516104ee3803806104ee8339810160408190526100629161011c565b600080546001600160a01b0319166001600160a01b03831617905550610187565b82805461008f9061014c565b90600052602060002090601f0160209004810192826100b157600085556100f7565b82601f106100ca57805160ff19168380011785556100f7565b828001600101855582156100f7579182015b828111156100f75782518255916020019190600101906100dc565b50610103929150610107565b5090565b5b808211156101035760008155600101610108565b60006020828403121561012e57600080fd5b81516001600160a01b038116811461014557600080fd5b9392505050565b600181811c9082168061016057607f821691505b6020821081141561018157634e487b7160e01b600052602260045260246000fd5b50919050565b610358806101966000396000f3fe608060405234801561001057600080fd5b50600436106100665760003560e01c8063486ff0cd11610050578063486ff0cd146100a5578063572b6c05146100ba578063ce1b815f146100ec57600080fd5b80624225b81461006b578063239e26f21461009b575b600080fd5b60015461007e906001600160a01b031681565b6040516001600160a01b0390911681526020015b60405180910390f35b6100a36100fd565b005b6100ad610187565b6040516100929190610249565b6100dc6100c836600461029e565b6000546001600160a01b0391821691161490565b6040519015158152602001610092565b6000546001600160a01b031661007e565b6001546001600160a01b0316610111610215565b600180547fffffffffffffffffffffffff0000000000000000000000000000000000000000166001600160a01b0392831690811790915560408051928416835260208301919091527facc718a11fbc93a22905740808767480f9efd07b1c0b0128095790cd1440048d910160405180910390a150565b60028054610194906102ce565b80601f01602080910402602001604051908101604052809291908181526020018280546101c0906102ce565b801561020d5780601f106101e25761010080835404028352916020019161020d565b820191906000526020600020905b8154815290600101906020018083116101f057829003601f168201915b505050505081565b60006014361080159061023257506000546001600160a01b031633145b15610244575060131936013560601c90565b503390565b600060208083528351808285015260005b818110156102765785810183015185820160400152820161025a565b81811115610288576000604083870101525b50601f01601f1916929092016040019392505050565b6000602082840312156102b057600080fd5b81356001600160a01b03811681146102c757600080fd5b9392505050565b600181811c908216806102e257607f821691505b6020821081141561031c577f4e487b7100000000000000000000000000000000000000000000000000000000600052602260045260246000fd5b5091905056fea264697066735822122004045c14e523e8845e52e06c278c8ca1275084cd64002f633db2c4696fcc970364736f6c63430008080033","opcodes":"PUSH1 0x1 DUP1 SLOAD PUSH1 0x1 PUSH1 0x1 PUSH1 0xA0 SHL SUB NOT AND SWAP1 SSTORE PUSH1 0xC0 PUSH1 0x40 MSTORE PUSH1 0x5 PUSH1 0x80 DUP2 SWAP1 MSTORE PUSH5 0x332E302E3 PUSH1 0xDC SHL PUSH1 0xA0 SWAP1 DUP2 MSTORE PUSH2 0x36 SWAP2 PUSH1 0x2 SWAP2 SWAP1 PUSH2 0x83 JUMP JUMPDEST POP CALLVALUE DUP1 ISZERO PUSH2 0x43 JUMPI PUSH1 0x0 DUP1 REVERT JUMPDEST POP PUSH1 0x40 MLOAD PUSH2 0x4EE CODESIZE SUB DUP1 PUSH2 0x4EE DUP4 CODECOPY DUP2 ADD PUSH1 0x40 DUP2 SWAP1 MSTORE PUSH2 0x62 SWAP2 PUSH2 0x11C JUMP JUMPDEST PUSH1 0x0 DUP1 SLOAD PUSH1 0x1 PUSH1 0x1 PUSH1 0xA0 SHL SUB NOT AND PUSH1 0x1 PUSH1 0x1 PUSH1 0xA0 SHL SUB DUP4 AND OR SWAP1 SSTORE POP PUSH2 0x187 JUMP JUMPDEST DUP3 DUP1 SLOAD PUSH2 0x8F SWAP1 PUSH2 0x14C JUMP JUMPDEST SWAP1 PUSH1 0x0 MSTORE PUSH1 0x20 PUSH1 0x0 KECCAK256 SWAP1 PUSH1 0x1F ADD PUSH1 0x20 SWAP1 DIV DUP2 ADD SWAP3 DUP3 PUSH2 0xB1 JUMPI PUSH1 0x0 DUP6 SSTORE PUSH2 0xF7 JUMP JUMPDEST DUP3 PUSH1 0x1F LT PUSH2 0xCA JUMPI DUP1 MLOAD PUSH1 0xFF NOT AND DUP4 DUP1 ADD OR DUP6 SSTORE PUSH2 0xF7 JUMP JUMPDEST DUP3 DUP1 ADD PUSH1 0x1 ADD DUP6 SSTORE DUP3 ISZERO PUSH2 0xF7 JUMPI SWAP2 DUP3 ADD JUMPDEST DUP3 DUP2 GT ISZERO PUSH2 0xF7 JUMPI DUP3 MLOAD DUP3 SSTORE SWAP2 PUSH1 0x20 ADD SWAP2 SWAP1 PUSH1 0x1 ADD SWAP1 PUSH2 0xDC JUMP JUMPDEST POP PUSH2 0x103 SWAP3 SWAP2 POP PUSH2 0x107 JUMP JUMPDEST POP SWAP1 JUMP JUMPDEST JUMPDEST DUP1 DUP3 GT ISZERO PUSH2 0x103 JUMPI PUSH1 0x0 DUP2 SSTORE PUSH1 0x1 ADD PUSH2 0x108 JUMP JUMPDEST PUSH1 0x0 PUSH1 0x20 DUP3 DUP5 SUB SLT ISZERO PUSH2 0x12E JUMPI PUSH1 0x0 DUP1 REVERT JUMPDEST DUP2 MLOAD PUSH1 0x1 PUSH1 0x1 PUSH1 0xA0 SHL SUB DUP2 AND DUP2 EQ PUSH2 0x145 JUMPI PUSH1 0x0 DUP1 REVERT JUMPDEST SWAP4 SWAP3 POP POP POP JUMP JUMPDEST PUSH1 0x1 DUP2 DUP2 SHR SWAP1 DUP3 AND DUP1 PUSH2 0x160 JUMPI PUSH1 0x7F DUP3 AND SWAP2 POP JUMPDEST PUSH1 0x20 DUP3 LT DUP2 EQ ISZERO PUSH2 0x181 JUMPI PUSH4 0x4E487B71 PUSH1 0xE0 SHL PUSH1 0x0 MSTORE PUSH1 0x22 PUSH1 0x4 MSTORE PUSH1 0x24 PUSH1 0x0 REVERT JUMPDEST POP SWAP2 SWAP1 POP JUMP JUMPDEST PUSH2 0x358 DUP1 PUSH2 0x196 PUSH1 0x0 CODECOPY PUSH1 0x0 RETURN INVALID PUSH1 0x80 PUSH1 0x40 MSTORE CALLVALUE DUP1 ISZERO PUSH2 0x10 JUMPI PUSH1 0x0 DUP1 REVERT JUMPDEST POP PUSH1 0x4 CALLDATASIZE LT PUSH2 0x66 JUMPI PUSH1 0x0 CALLDATALOAD PUSH1 0xE0 SHR DUP1 PUSH4 0x486FF0CD GT PUSH2 0x50 JUMPI DUP1 PUSH4 0x486FF0CD EQ PUSH2 0xA5 JUMPI DUP1 PUSH4 0x572B6C05 EQ PUSH2 0xBA JUMPI DUP1 PUSH4 0xCE1B815F EQ PUSH2 0xEC JUMPI PUSH1 0x0 DUP1 REVERT JUMPDEST DUP1 PUSH3 0x4225B8 EQ PUSH2 0x6B JUMPI DUP1 PUSH4 0x239E26F2 EQ PUSH2 0x9B JUMPI JUMPDEST PUSH1 0x0 DUP1 REVERT JUMPDEST PUSH1 0x1 SLOAD PUSH2 0x7E SWAP1 PUSH1 0x1 PUSH1 0x1 PUSH1 0xA0 SHL SUB AND DUP2 JUMP JUMPDEST PUSH1 0x40 MLOAD PUSH1 0x1 PUSH1 0x1 PUSH1 0xA0 SHL SUB SWAP1 SWAP2 AND DUP2 MSTORE PUSH1 0x20 ADD JUMPDEST PUSH1 0x40 MLOAD DUP1 SWAP2 SUB SWAP1 RETURN JUMPDEST PUSH2 0xA3 PUSH2 0xFD JUMP JUMPDEST STOP JUMPDEST PUSH2 0xAD PUSH2 0x187 JUMP JUMPDEST PUSH1 0x40 MLOAD PUSH2 0x92 SWAP2 SWAP1 PUSH2 0x249 JUMP JUMPDEST PUSH2 0xDC PUSH2 0xC8 CALLDATASIZE PUSH1 0x4 PUSH2 0x29E JUMP JUMPDEST PUSH1 0x0 SLOAD PUSH1 0x1 PUSH1 0x1 PUSH1 0xA0 SHL SUB SWAP2 DUP3 AND SWAP2 AND EQ SWAP1 JUMP JUMPDEST PUSH1 0x40 MLOAD SWAP1 ISZERO ISZERO DUP2 MSTORE PUSH1 0x20 ADD PUSH2 0x92 JUMP JUMPDEST PUSH1 0x0 SLOAD PUSH1 0x1 PUSH1 0x1 PUSH1 0xA0 SHL SUB AND PUSH2 0x7E JUMP JUMPDEST PUSH1 0x1 SLOAD PUSH1 0x1 PUSH1 0x1 PUSH1 0xA0 SHL SUB AND PUSH2 0x111 PUSH2 0x215 JUMP JUMPDEST PUSH1 0x1 DUP1 SLOAD PUSH32 0xFFFFFFFFFFFFFFFFFFFFFFFF0000000000000000000000000000000000000000 AND PUSH1 0x1 PUSH1 0x1 PUSH1 0xA0 SHL SUB SWAP3 DUP4 AND SWAP1 DUP2 OR SWAP1 SWAP2 SSTORE PUSH1 0x40 DUP1 MLOAD SWAP3 DUP5 AND DUP4 MSTORE PUSH1 0x20 DUP4 ADD SWAP2 SWAP1 SWAP2 MSTORE PUSH32 0xACC718A11FBC93A22905740808767480F9EFD07B1C0B0128095790CD1440048D SWAP2 ADD PUSH1 0x40 MLOAD DUP1 SWAP2 SUB SWAP1 LOG1 POP JUMP JUMPDEST PUSH1 0x2 DUP1 SLOAD PUSH2 0x194 SWAP1 PUSH2 0x2CE JUMP JUMPDEST DUP1 PUSH1 0x1F ADD PUSH1 0x20 DUP1 SWAP2 DIV MUL PUSH1 0x20 ADD PUSH1 0x40 MLOAD SWAP1 DUP2 ADD PUSH1 0x40 MSTORE DUP1 SWAP3 SWAP2 SWAP1 DUP2 DUP2 MSTORE PUSH1 0x20 ADD DUP3 DUP1 SLOAD PUSH2 0x1C0 SWAP1 PUSH2 0x2CE JUMP JUMPDEST DUP1 ISZERO PUSH2 0x20D JUMPI DUP1 PUSH1 0x1F LT PUSH2 0x1E2 JUMPI PUSH2 0x100 DUP1 DUP4 SLOAD DIV MUL DUP4 MSTORE SWAP2 PUSH1 0x20 ADD SWAP2 PUSH2 0x20D JUMP JUMPDEST DUP3 ADD SWAP2 SWAP1 PUSH1 0x0 MSTORE PUSH1 0x20 PUSH1 0x0 KECCAK256 SWAP1 JUMPDEST DUP2 SLOAD DUP2 MSTORE SWAP1 PUSH1 0x1 ADD SWAP1 PUSH1 0x20 ADD DUP1 DUP4 GT PUSH2 0x1F0 JUMPI DUP3 SWAP1 SUB PUSH1 0x1F AND DUP3 ADD SWAP2 JUMPDEST POP POP POP POP POP DUP2 JUMP JUMPDEST PUSH1 0x0 PUSH1 0x14 CALLDATASIZE LT DUP1 ISZERO SWAP1 PUSH2 0x232 JUMPI POP PUSH1 0x0 SLOAD PUSH1 0x1 PUSH1 0x1 PUSH1 0xA0 SHL SUB AND CALLER EQ JUMPDEST ISZERO PUSH2 0x244 JUMPI POP PUSH1 0x13 NOT CALLDATASIZE ADD CALLDATALOAD PUSH1 0x60 SHR SWAP1 JUMP JUMPDEST POP CALLER SWAP1 JUMP JUMPDEST PUSH1 0x0 PUSH1 0x20 DUP1 DUP4 MSTORE DUP4 MLOAD DUP1 DUP3 DUP6 ADD MSTORE PUSH1 0x0 JUMPDEST DUP2 DUP2 LT ISZERO PUSH2 0x276 JUMPI DUP6 DUP2 ADD DUP4 ADD MLOAD DUP6 DUP3 ADD PUSH1 0x40 ADD MSTORE DUP3 ADD PUSH2 0x25A JUMP JUMPDEST DUP2 DUP2 GT ISZERO PUSH2 0x288 JUMPI PUSH1 0x0 PUSH1 0x40 DUP4 DUP8 ADD ADD MSTORE JUMPDEST POP PUSH1 0x1F ADD PUSH1 0x1F NOT AND SWAP3 SWAP1 SWAP3 ADD PUSH1 0x40 ADD SWAP4 SWAP3 POP POP POP JUMP JUMPDEST PUSH1 0x0 PUSH1 0x20 DUP3 DUP5 SUB SLT ISZERO PUSH2 0x2B0 JUMPI PUSH1 0x0 DUP1 REVERT JUMPDEST DUP2 CALLDATALOAD PUSH1 0x1 PUSH1 0x1 PUSH1 0xA0 SHL SUB DUP2 AND DUP2 EQ PUSH2 0x2C7 JUMPI PUSH1 0x0 DUP1 REVERT JUMPDEST SWAP4 SWAP3 POP POP POP JUMP JUMPDEST PUSH1 0x1 DUP2 DUP2 SHR SWAP1 DUP3 AND DUP1 PUSH2 0x2E2 JUMPI PUSH1 0x7F DUP3 AND SWAP2 POP JUMPDEST PUSH1 0x20 DUP3 LT DUP2 EQ ISZERO PUSH2 0x31C JUMPI PUSH32 0x4E487B7100000000000000000000000000000000000000000000000000000000 PUSH1 0x0 MSTORE PUSH1 0x22 PUSH1 0x4 MSTORE PUSH1 0x24 PUSH1 0x0 REVERT JUMPDEST POP SWAP2 SWAP1 POP JUMP INVALID LOG2 PUSH5 0x6970667358 0x22 SLT KECCAK256 DIV DIV 0x5C EQ 0xE5 0x23 0xE8 DUP5 0x5E MSTORE 0xE0 PUSH13 0x278C8CA1275084CD64002F633D 0xB2 0xC4 PUSH10 0x6FCC970364736F6C6343 STOP ADDMOD ADDMOD STOP CALLER "},"gasEstimates":{"creation":{"codeDepositCost":"171200","executionCost":"infinite","totalCost":"infinite"},"external":{"captureTheFlag()":"30111","currentHolder()":"2327","getTrustedForwarder()":"2364","isTrustedForwarder(address)":"2479","versionRecipient()":"infinite"}},"methodIdentifiers":{"captureTheFlag()":"239e26f2","currentHolder()":"004225b8","getTrustedForwarder()":"ce1b815f","isTrustedForwarder(address)":"572b6c05","versionRecipient()":"486ff0cd"}},"storageLayout":{"storage":[{"astId":7,"contract":"contracts/CaptureTheFlag.sol:CaptureTheFlag","label":"_trustedForwarder","offset":0,"slot":"0","type":"t_address"},{"astId":143,"contract":"contracts/CaptureTheFlag.sol:CaptureTheFlag","label":"currentHolder","offset":0,"slot":"1","type":"t_address"},{"astId":156,"contract":"contracts/CaptureTheFlag.sol:CaptureTheFlag","label":"versionRecipient","offset":0,"slot":"2","type":"t_string_storage"}],"types":{"t_address":{"encoding":"inplace","label":"address","numberOfBytes":"20"},"t_string_storage":{"encoding":"bytes","label":"string","numberOfBytes":"32"}}},"userdoc":{"kind":"user","methods":{"getTrustedForwarder()":{"notice":":warning: **Warning** :warning: The Forwarder can have a full control over your Recipient. Only trust verified Forwarder.Method is not a required method to allow Recipients to trust multiple Forwarders. Not recommended yet."},"isTrustedForwarder(address)":{"notice":":warning: **Warning** :warning: The Forwarder can have a full control over your Recipient. Only trust verified Forwarder."}},"version":1}}}}