{"@opengsn/paymasters/contracts/WhitelistPaymaster.sol":{"WhitelistPaymaster":{"abi":[{"anonymous":false,"inputs":[{"indexed":true,"internalType":"address","name":"previousOwner","type":"address"},{"indexed":true,"internalType":"address","name":"newOwner","type":"address"}],"name":"OwnershipTransferred","type":"event"},{"inputs":[],"name":"CALLDATA_SIZE_LIMIT","outputs":[{"internalType":"uint256","name":"","type":"uint256"}],"stateMutability":"view","type":"function"},{"inputs":[],"name":"FORWARDER_HUB_OVERHEAD","outputs":[{"internalType":"uint256","name":"","type":"uint256"}],"stateMutability":"view","type":"function"},{"inputs":[],"name":"PAYMASTER_ACCEPTANCE_BUDGET","outputs":[{"internalType":"uint256","name":"","type":"uint256"}],"stateMutability":"view","type":"function"},{"inputs":[],"name":"POST_RELAYED_CALL_GAS_LIMIT","outputs":[{"internalType":"uint256","name":"","type":"uint256"}],"stateMutability":"view","type":"function"},{"inputs":[],"name":"PRE_RELAYED_CALL_GAS_LIMIT","outputs":[{"internalType":"uint256","name":"","type":"uint256"}],"stateMutability":"view","type":"function"},{"inputs":[],"name":"getGasAndDataLimits","outputs":[{"components":[{"internalType":"uint256","name":"acceptanceBudget","type":"uint256"},{"internalType":"uint256","name":"preRelayedCallGasLimit","type":"uint256"},{"internalType":"uint256","name":"postRelayedCallGasLimit","type":"uint256"},{"internalType":"uint256","name":"calldataSizeLimit","type":"uint256"}],"internalType":"struct IPaymaster.GasAndDataLimits","name":"limits","type":"tuple"}],"stateMutability":"view","type":"function"},{"inputs":[],"name":"getRelayHub","outputs":[{"internalType":"address","name":"","type":"address"}],"stateMutability":"view","type":"function"},{"inputs":[],"name":"getTrustedForwarder","outputs":[{"internalType":"address","name":"","type":"address"}],"stateMutability":"view","type":"function"},{"inputs":[{"internalType":"address","name":"","type":"address"},{"internalType":"bytes4","name":"","type":"bytes4"}],"name":"methodWhitelist","outputs":[{"internalType":"bool","name":"","type":"bool"}],"stateMutability":"view","type":"function"},{"inputs":[],"name":"owner","outputs":[{"internalType":"address","name":"","type":"address"}],"stateMutability":"view","type":"function"},{"inputs":[{"internalType":"bytes","name":"context","type":"bytes"},{"internalType":"bool","name":"success","type":"bool"},{"internalType":"uint256","name":"gasUseWithoutPost","type":"uint256"},{"components":[{"internalType":"uint256","name":"maxFeePerGas","type":"uint256"},{"internalType":"uint256","name":"maxPriorityFeePerGas","type":"uint256"},{"internalType":"uint256","name":"transactionCalldataGasUsed","type":"uint256"},{"internalType":"address","name":"relayWorker","type":"address"},{"internalType":"address","name":"paymaster","type":"address"},{"internalType":"address","name":"forwarder","type":"address"},{"internalType":"bytes","name":"paymasterData","type":"bytes"},{"internalType":"uint256","name":"clientId","type":"uint256"}],"internalType":"struct GsnTypes.RelayData","name":"relayData","type":"tuple"}],"name":"postRelayedCall","outputs":[],"stateMutability":"nonpayable","type":"function"},{"inputs":[{"components":[{"components":[{"internalType":"address","name":"from","type":"address"},{"internalType":"address","name":"to","type":"address"},{"internalType":"uint256","name":"value","type":"uint256"},{"internalType":"uint256","name":"gas","type":"uint256"},{"internalType":"uint256","name":"nonce","type":"uint256"},{"internalType":"bytes","name":"data","type":"bytes"},{"internalType":"uint256","name":"validUntilTime","type":"uint256"}],"internalType":"struct IForwarder.ForwardRequest","name":"request","type":"tuple"},{"components":[{"internalType":"uint256","name":"maxFeePerGas","type":"uint256"},{"internalType":"uint256","name":"maxPriorityFeePerGas","type":"uint256"},{"internalType":"uint256","name":"transactionCalldataGasUsed","type":"uint256"},{"internalType":"address","name":"relayWorker","type":"address"},{"internalType":"address","name":"paymaster","type":"address"},{"internalType":"address","name":"forwarder","type":"address"},{"internalType":"bytes","name":"paymasterData","type":"bytes"},{"internalType":"uint256","name":"clientId","type":"uint256"}],"internalType":"struct GsnTypes.RelayData","name":"relayData","type":"tuple"}],"internalType":"struct GsnTypes.RelayRequest","name":"relayRequest","type":"tuple"},{"internalType":"bytes","name":"signature","type":"bytes"},{"internalType":"bytes","name":"approvalData","type":"bytes"},{"internalType":"uint256","name":"maxPossibleGas","type":"uint256"}],"name":"preRelayedCall","outputs":[{"internalType":"bytes","name":"","type":"bytes"},{"internalType":"bool","name":"","type":"bool"}],"stateMutability":"nonpayable","type":"function"},{"inputs":[],"name":"renounceOwnership","outputs":[],"stateMutability":"nonpayable","type":"function"},{"inputs":[{"internalType":"address","name":"","type":"address"}],"name":"senderWhitelist","outputs":[{"internalType":"bool","name":"","type":"bool"}],"stateMutability":"view","type":"function"},{"inputs":[{"internalType":"bool","name":"_useSenderWhitelist","type":"bool"},{"internalType":"bool","name":"_useTargetWhitelist","type":"bool"},{"internalType":"bool","name":"_useMethodWhitelist","type":"bool"},{"internalType":"bool","name":"_useRejectOnRecipientRevert","type":"bool"}],"name":"setConfiguration","outputs":[],"stateMutability":"nonpayable","type":"function"},{"inputs":[{"internalType":"contract IRelayHub","name":"hub","type":"address"}],"name":"setRelayHub","outputs":[],"stateMutability":"nonpayable","type":"function"},{"inputs":[{"internalType":"address","name":"forwarder","type":"address"}],"name":"setTrustedForwarder","outputs":[],"stateMutability":"nonpayable","type":"function"},{"inputs":[{"internalType":"bytes4","name":"interfaceId","type":"bytes4"}],"name":"supportsInterface","outputs":[{"internalType":"bool","name":"","type":"bool"}],"stateMutability":"view","type":"function"},{"inputs":[{"internalType":"address","name":"","type":"address"}],"name":"targetWhitelist","outputs":[{"internalType":"bool","name":"","type":"bool"}],"stateMutability":"view","type":"function"},{"inputs":[{"internalType":"address","name":"newOwner","type":"address"}],"name":"transferOwnership","outputs":[],"stateMutability":"nonpayable","type":"function"},{"inputs":[],"name":"useMethodWhitelist","outputs":[{"internalType":"bool","name":"","type":"bool"}],"stateMutability":"view","type":"function"},{"inputs":[],"name":"useRejectOnRecipientRevert","outputs":[{"internalType":"bool","name":"","type":"bool"}],"stateMutability":"view","type":"function"},{"inputs":[],"name":"useSenderWhitelist","outputs":[{"internalType":"bool","name":"","type":"bool"}],"stateMutability":"view","type":"function"},{"inputs":[],"name":"useTargetWhitelist","outputs":[{"internalType":"bool","name":"","type":"bool"}],"stateMutability":"view","type":"function"},{"inputs":[],"name":"versionPaymaster","outputs":[{"internalType":"string","name":"","type":"string"}],"stateMutability":"view","type":"function"},{"inputs":[{"internalType":"address","name":"target","type":"address"},{"internalType":"bytes4","name":"method","type":"bytes4"},{"internalType":"bool","name":"isAllowed","type":"bool"}],"name":"whitelistMethod","outputs":[],"stateMutability":"nonpayable","type":"function"},{"inputs":[{"internalType":"address","name":"sender","type":"address"},{"internalType":"bool","name":"isAllowed","type":"bool"}],"name":"whitelistSender","outputs":[],"stateMutability":"nonpayable","type":"function"},{"inputs":[{"internalType":"address","name":"target","type":"address"},{"internalType":"bool","name":"isAllowed","type":"bool"}],"name":"whitelistTarget","outputs":[],"stateMutability":"nonpayable","type":"function"},{"inputs":[{"internalType":"uint256","name":"amount","type":"uint256"},{"internalType":"address payable","name":"target","type":"address"}],"name":"withdrawRelayHubDepositTo","outputs":[],"stateMutability":"nonpayable","type":"function"},{"stateMutability":"payable","type":"receive"}],"devdoc":{"kind":"dev","methods":{"getGasAndDataLimits()":{"returns":{"limits":"An instance of the `GasAndDataLimits` struct ##### `acceptanceBudget` If the transactions consumes more than `acceptanceBudget` this Paymaster will be charged for gas no matter what. Transaction that gets rejected after consuming more than `acceptanceBudget` gas is on this Paymaster's expense. Should be set to an amount gas this Paymaster expects to spend deciding whether to accept or reject a request. This includes gas consumed by calculations in the `preRelayedCall`, `Forwarder` and the recipient contract. :warning: **Warning** :warning: As long this value is above `preRelayedCallGasLimit` (see defaults in `BasePaymaster`), the Paymaster is guaranteed it will never pay for rejected transactions. If this value is below `preRelayedCallGasLimit`, it might might make Paymaster open to a \"griefing\" attack. The relayers should prefer lower `acceptanceBudget`, as it improves their chances of being compensated. From a Relay's point of view, this is the highest gas value a bad Paymaster may cost the relay, since the paymaster will pay anything above that value regardless of whether the transaction succeeds or reverts. Specifying value too high might make the call rejected by relayers (see `maxAcceptanceBudget` in server config). ##### `preRelayedCallGasLimit` The max gas usage of preRelayedCall. Any revert of the `preRelayedCall` is a request rejection by the paymaster. As long as `acceptanceBudget` is above `preRelayedCallGasLimit`, any such revert is not payed by the paymaster. ##### `postRelayedCallGasLimit` The max gas usage of postRelayedCall. The Paymaster is not charged for the maximum, only for actually used gas. Note that an OOG will revert the inner transaction, but the paymaster will be charged for it anyway."}},"getRelayHub()":{"returns":{"_0":"The address of the `RelayHub` that is trusted by this Paymaster to execute the requests."}},"getTrustedForwarder()":{"returns":{"_0":"The address of the `Forwarder` that is trusted by this Paymaster to execute the requests."}},"owner()":{"details":"Returns the address of the current owner."},"postRelayedCall(bytes,bool,uint256,(uint256,uint256,uint256,address,address,address,bytes,uint256))":{"params":{"context":"The call context, as returned by the preRelayedCall","gasUseWithoutPost":"The actual amount of gas used by the entire transaction, EXCEPT        the gas used by the postRelayedCall itself.","relayData":"The relay params of the request. can be used by relayHub.calculateCharge()","success":"`true` if the relayed call succeeded, false if it reverted"}},"preRelayedCall(((address,address,uint256,uint256,uint256,bytes,uint256),(uint256,uint256,uint256,address,address,address,bytes,uint256)),bytes,bytes,uint256)":{"params":{"approvalData":"- extra dapp-specific data (e.g. signature from trusted party)","maxPossibleGas":"- based on values returned from `getGasAndDataLimits` the RelayHub will calculate the maximum possible amount of gas the user may be charged for. In order to convert this value to wei, the Paymaster has to call \"relayHub.calculateCharge()\"","relayRequest":"- the full relay request structure","signature":"- user's EIP712-compatible signature of the `relayRequest`. Note that in most cases the paymaster shouldn't try use it at all. It is always checked by the forwarder immediately after preRelayedCall returns."},"returns":{"_0":"A byte array to be passed to postRelayedCall. Can contain any data needed by this Paymaster in any form or be empty if no extra data is needed.","_1":"The flag that allows a Paymaster to \"delegate\" the rejection to the recipient code. It also means the Paymaster trust the recipient to reject fast: both preRelayedCall, forwarder check and recipient checks must fit into the GasLimits.acceptanceBudget, otherwise the TX is paid by the Paymaster. `true` if the Paymaster wants to reject the TX if the recipient reverts. `false` if the Paymaster wants rejects by the recipient to be completed on chain and paid by the Paymaster."}},"renounceOwnership()":{"details":"Leaves the contract without owner. It will not be possible to call `onlyOwner` functions anymore. Can only be called by the current owner. NOTE: Renouncing ownership will leave the contract without an owner, thereby removing any functionality that is only available to the owner."},"supportsInterface(bytes4)":{"details":"Returns true if this contract implements the interface defined by `interfaceId`. See the corresponding https://eips.ethereum.org/EIPS/eip-165#how-interfaces-are-identified[EIP section] to learn more about how these ids are created. This function call must use less than 30 000 gas."},"transferOwnership(address)":{"details":"Transfers ownership of the contract to a new account (`newOwner`). Can only be called by the current owner."},"versionPaymaster()":{"returns":{"_0":"version The SemVer string of this Paymaster's version."}},"withdrawRelayHubDepositTo(uint256,address)":{"params":{"amount":"The amount to be subtracted from the sender.","target":"The target to which the amount will be transferred."}}},"version":1},"evm":{"bytecode":{"linkReferences":{},"object":"608060405234801561001057600080fd5b5061001a3361001f565b61006f565b600080546001600160a01b038381166001600160a01b0319831681178455604051919092169283917f8be0079c531659141344cd1fd0a4f28419497f9722a3daafe3b4186f6b6457e09190a35050565b611ac98061007e6000396000f3fe6080604052600436106101c55760003560e01c80638222f07d116100f7578063bbdaa3c911610095578063df463a6611610064578063df463a661461064c578063e1838f8d14610661578063f2fde38b14610681578063f9c002f7146106a157600080fd5b8063bbdaa3c9146105d6578063ce1b815f146105ed578063da7422281461060b578063dd1bcaa11461062b57600080fd5b80638da5cb5b116100d15780638da5cb5b14610538578063921276ea14610556578063b039a88f14610578578063b90b41cf146105c057600080fd5b80638222f07d146104b8578063858437b0146104e857806386c0a9f81461051857600080fd5b80634f28bfb911610164578063715018a61161013e578063715018a61461043157806376fa01c3146104465780637bb05264146104665780637bdf2ec71461048657600080fd5b80634f28bfb9146103cb5780634f33b4dd146103ec5780635c5e3db11461040d57600080fd5b80630d4ca3a4116101a05780630d4ca3a41461032f57806312256054146103505780632d14c4b7146103705780633a0892e31461039057600080fd5b8062be5dd4146102a657806301ffc9a7146102dd5780630613fef81461030d57600080fd5b366102a1576001546001600160a01b03166102275760405162461bcd60e51b815260206004820152601960248201527f72656c6179206875622061646472657373206e6f74207365740000000000000060448201526064015b60405180910390fd5b6001546040517faa67c9190000000000000000000000000000000000000000000000000000000081523060048201526001600160a01b039091169063aa67c9199034906024016000604051808303818588803b15801561028657600080fd5b505af115801561029a573d6000803e3d6000fd5b5050505050005b600080fd5b3480156102b257600080fd5b506102c66102c1366004611607565b6106b8565b6040516102d4929190611708565b60405180910390f35b3480156102e957600080fd5b506102fd6102f8366004611749565b610706565b60405190151581526020016102d4565b34801561031957600080fd5b5061032d610328366004611787565b61078a565b005b34801561033b57600080fd5b506002546102fd90600160b01b900460ff1681565b34801561035c57600080fd5b5061032d61036b366004611787565b6107bd565b34801561037c57600080fd5b5061032d61038b3660046117c0565b6107f0565b34801561039c57600080fd5b506102fd6103ab3660046117e5565b600560209081526000928352604080842090915290825290205460ff1681565b3480156103d757600080fd5b506002546102fd90600160a81b900460ff1681565b3480156103f857600080fd5b506002546102fd90600160b81b900460ff1681565b34801561041957600080fd5b5061042361290481565b6040519081526020016102d4565b34801561043d57600080fd5b5061032d61087b565b34801561045257600080fd5b5061032d61046136600461181a565b61088f565b34801561047257600080fd5b5061032d6104813660046118aa565b61089e565b34801561049257600080fd5b506001546001600160a01b03165b6040516001600160a01b0390911681526020016102d4565b3480156104c457600080fd5b506102fd6104d33660046118aa565b60036020526000908152604090205460ff1681565b3480156104f457600080fd5b506102fd6105033660046118aa565b60046020526000908152604090205460ff1681565b34801561052457600080fd5b5061032d6105333660046118c7565b610954565b34801561054457600080fd5b506000546001600160a01b03166104a0565b34801561056257600080fd5b5061056b610a26565b6040516102d49190611923565b34801561058457600080fd5b5061058d610a46565b6040516102d491908151815260208083015190820152604080830151908201526060918201519181019190915260800190565b3480156105cc57600080fd5b5061042361c35081565b3480156105e257600080fd5b506104236201adb081565b3480156105f957600080fd5b506002546001600160a01b03166104a0565b34801561061757600080fd5b5061032d6106263660046118aa565b610aaf565b34801561063757600080fd5b506002546102fd90600160a01b900460ff1681565b34801561065857600080fd5b50610423610b65565b34801561066d57600080fd5b5061032d61067c366004611936565b610b77565b34801561068d57600080fd5b5061032d61069c3660046118aa565b610bc0565b3480156106ad57600080fd5b50610423620186a081565b606060006106c4610c50565b6106cd88610caa565b6106d688610d42565b6106df88610d9d565b6106e98585610e07565b6106f7888888888888610e59565b91509150965096945050505050565b60006001600160e01b031982167fe1ab2dea00000000000000000000000000000000000000000000000000000000148061076957506001600160e01b031982167f0e08307600000000000000000000000000000000000000000000000000000000145b8061078457506301ffc9a760e01b6001600160e01b03198316145b92915050565b61079261117f565b6001600160a01b03919091166000908152600360205260409020805460ff1916911515919091179055565b6107c561117f565b6001600160a01b03919091166000908152600460205260409020805460ff1916911515919091179055565b6107f861117f565b6001546040517ff3fef3a30000000000000000000000000000000000000000000000000000000081526001600160a01b038381166004830152602482018590529091169063f3fef3a390604401600060405180830381600087803b15801561085f57600080fd5b505af1158015610873573d6000803e3d6000fd5b505050505050565b61088361117f565b61088d60006111d9565b565b610897610c50565b5050505050565b6108a661117f565b6108d96001600160a01b0382167fe9fb30f700000000000000000000000000000000000000000000000000000000611236565b6109255760405162461bcd60e51b815260206004820152601f60248201527f746172676574206973206e6f7420612076616c6964204952656c617948756200604482015260640161021e565b6001805473ffffffffffffffffffffffffffffffffffffffff19166001600160a01b0392909216919091179055565b61095c61117f565b600280547fffffffffffffffffffff0000ffffffffffffffffffffffffffffffffffffffff16600160a01b951515959095027fffffffffffffffffffff00ffffffffffffffffffffffffffffffffffffffffff1694909417600160a81b93151593909302929092177fffffffffffffffff0000ffffffffffffffffffffffffffffffffffffffffffff16600160b01b911515919091027fffffffffffffffff00ffffffffffffffffffffffffffffffffffffffffffffff1617600160b81b91151591909102179055565b6060604051806060016040528060298152602001611a6b60299139905090565b610a716040518060800160405280600081526020016000815260200160008152602001600081525090565b604051806080016040528061c350620186a0610a8d919061197f565b8152602001620186a081526020016201adb08152602001612904815250905090565b610ab761117f565b610aea6001600160a01b0382167f25e23e6400000000000000000000000000000000000000000000000000000000611236565b610b365760405162461bcd60e51b815260206004820181905260248201527f746172676574206973206e6f7420612076616c69642049466f72776172646572604482015260640161021e565b6002805473ffffffffffffffffffffffffffffffffffffffff19166001600160a01b0392909216919091179055565b610b7461c350620186a061197f565b81565b610b7f61117f565b6001600160a01b0390921660009081526005602090815260408083206001600160e01b0319909416835292905220805491151560ff19909216919091179055565b610bc861117f565b6001600160a01b038116610c445760405162461bcd60e51b815260206004820152602660248201527f4f776e61626c653a206e6577206f776e657220697320746865207a65726f206160448201527f6464726573730000000000000000000000000000000000000000000000000000606482015260840161021e565b610c4d816111d9565b50565b6001546001600160a01b0316331461088d5760405162461bcd60e51b815260206004820152601e60248201527f63616e206f6e6c792062652063616c6c65642062792052656c61794875620000604482015260640161021e565b610cb760208201826119be565b610cc89060c081019060a0016118aa565b6001600160a01b0316610ce36002546001600160a01b031690565b6001600160a01b031614610d395760405162461bcd60e51b815260206004820152601860248201527f466f72776172646572206973206e6f7420747275737465640000000000000000604482015260640161021e565b610c4d81611259565b610d4c81806119de565b6040013515610c4d5760405162461bcd60e51b815260206004820152601c60248201527f76616c7565207472616e73666572206e6f7420737570706f7274656400000000604482015260640161021e565b610daa60208201826119be565b610db89060c08101906119f4565b159050610c4d5760405162461bcd60e51b815260206004820152601c60248201527f73686f756c642068617665206e6f207061796d61737465724461746100000000604482015260640161021e565b8015610e555760405162461bcd60e51b815260206004820152601b60248201527f73686f756c642068617665206e6f20617070726f76616c446174610000000000604482015260640161021e565b5050565b606060008315610eab5760405162461bcd60e51b815260206004820152601c60248201527f617070726f76616c446174613a20696e76616c6964206c656e67746800000000604482015260640161021e565b610eb860208901896119be565b610ec69060c08101906119f4565b159050610f155760405162461bcd60e51b815260206004820152601d60248201527f7061796d6173746572446174613a20696e76616c6964206c656e677468000000604482015260640161021e565b600254600160a01b900460ff1615610fae576000610f3389806119de565b610f419060208101906118aa565b6001600160a01b03811660009081526003602052604090205490915060ff16610fac5760405162461bcd60e51b815260206004820152601660248201527f73656e646572206e6f742077686974656c697374656400000000000000000000604482015260640161021e565b505b600254600160a81b900460ff161561104a576000610fcc89806119de565b610fdd9060408101906020016118aa565b6001600160a01b03811660009081526004602052604090205490915060ff166110485760405162461bcd60e51b815260206004820152601660248201527f746172676574206e6f742077686974656c697374656400000000000000000000604482015260640161021e565b505b600254600160b01b900460ff161561115557600061106889806119de565b6110799060408101906020016118aa565b905060006110d261108a8b806119de565b6110989060a08101906119f4565b8080601f01602080910402602001604051908101604052809392919081815260200183838082843760009201919091525061147092505050565b6001600160a01b03831660009081526005602090815260408083206001600160e01b03198516845290915290205490915060ff166111525760405162461bcd60e51b815260206004820152601660248201527f6d6574686f64206e6f742077686974656c697374656400000000000000000000604482015260640161021e565b50505b505060025460408051602081019091526000815297600160b81b90910460ff169650945050505050565b6000546001600160a01b0316331461088d5760405162461bcd60e51b815260206004820181905260248201527f4f776e61626c653a2063616c6c6572206973206e6f7420746865206f776e6572604482015260640161021e565b600080546001600160a01b0383811673ffffffffffffffffffffffffffffffffffffffff19831681178455604051919092169283917f8be0079c531659141344cd1fd0a4f28419497f9722a3daafe3b4186f6b6457e09190a35050565b60006112418361147d565b8015611252575061125283836114b0565b9392505050565b60008061126683806119de565b6112779060408101906020016118aa565b6001600160a01b03167f572b6c05000000000000000000000000000000000000000000000000000000006112ae60208601866119be565b6112bf9060c081019060a0016118aa565b6040516001600160a01b03909116602482015260440160408051601f198184030181529181526020820180517bffffffffffffffffffffffffffffffffffffffffffffffffffffffff166001600160e01b03199094169390931790925290516113289190611a3b565b600060405180830381855afa9150503d8060008114611363576040519150601f19603f3d011682016040523d82523d6000602084013e611368565b606091505b5091509150816113ba5760405162461bcd60e51b815260206004820152601c60248201527f697354727573746564466f727761726465723a20726576657274656400000000604482015260640161021e565b805160201461140b5760405162461bcd60e51b815260206004820181905260248201527f697354727573746564466f727761726465723a2062616420726573706f6e7365604482015260640161021e565b8080602001905181019061141f9190611a4d565b61146b5760405162461bcd60e51b815260206004820152601f60248201527f696e76616c696420666f7277617264657220666f7220726563697069656e7400604482015260640161021e565b505050565b600061078482600061154e565b6000611490826301ffc9a760e01b6114b0565b801561078457506114a9826001600160e01b03196114b0565b1592915050565b604080516001600160e01b03198316602480830191909152825180830390910181526044909101909152602080820180517bffffffffffffffffffffffffffffffffffffffffffffffffffffffff166301ffc9a760e01b178152825160009392849283928392918391908a617530fa92503d91506000519050828015611537575060208210155b80156115435750600081115b979650505050505050565b600061155b82600461197f565b835110156115ab5760405162461bcd60e51b815260206004820152601a60248201527f726561644279746573343a206461746120746f6f2073686f7274000000000000604482015260640161021e565b5001602001516001600160e01b03191690565b60008083601f8401126115d057600080fd5b50813567ffffffffffffffff8111156115e857600080fd5b60208301915083602082850101111561160057600080fd5b9250929050565b6000806000806000806080878903121561162057600080fd5b863567ffffffffffffffff8082111561163857600080fd5b908801906040828b03121561164c57600080fd5b9096506020880135908082111561166257600080fd5b61166e8a838b016115be565b9097509550604089013591508082111561168757600080fd5b5061169489828a016115be565b979a9699509497949695606090950135949350505050565b60005b838110156116c75781810151838201526020016116af565b838111156116d6576000848401525b50505050565b600081518084526116f48160208601602086016116ac565b601f01601f19169290920160200192915050565b60408152600061171b60408301856116dc565b905082151560208301529392505050565b80356001600160e01b03198116811461174457600080fd5b919050565b60006020828403121561175b57600080fd5b6112528261172c565b6001600160a01b0381168114610c4d57600080fd5b8015158114610c4d57600080fd5b6000806040838503121561179a57600080fd5b82356117a581611764565b915060208301356117b581611779565b809150509250929050565b600080604083850312156117d357600080fd5b8235915060208301356117b581611764565b600080604083850312156117f857600080fd5b823561180381611764565b91506118116020840161172c565b90509250929050565b60008060008060006080868803121561183257600080fd5b853567ffffffffffffffff8082111561184a57600080fd5b61185689838a016115be565b90975095506020880135915061186b82611779565b909350604087013592506060870135908082111561188857600080fd5b508601610100818903121561189c57600080fd5b809150509295509295909350565b6000602082840312156118bc57600080fd5b813561125281611764565b600080600080608085870312156118dd57600080fd5b84356118e881611779565b935060208501356118f881611779565b9250604085013561190881611779565b9150606085013561191881611779565b939692955090935050565b60208152600061125260208301846116dc565b60008060006060848603121561194b57600080fd5b833561195681611764565b92506119646020850161172c565b9150604084013561197481611779565b809150509250925092565b600082198211156119b9577f4e487b7100000000000000000000000000000000000000000000000000000000600052601160045260246000fd5b500190565b6000823560fe198336030181126119d457600080fd5b9190910192915050565b6000823560de198336030181126119d457600080fd5b6000808335601e19843603018112611a0b57600080fd5b83018035915067ffffffffffffffff821115611a2657600080fd5b60200191503681900382131561160057600080fd5b600082516119d48184602087016116ac565b600060208284031215611a5f57600080fd5b81516112528161177956fe332e302e302d626574612e332b6f70656e67736e2e77686974656c6973742e697061796d6173746572a2646970667358221220e68024cbd03d81e16269c36cd437062c2889737c92c6b4e27d94aebc932b732064736f6c63430008080033","opcodes":"PUSH1 0x80 PUSH1 0x40 MSTORE CALLVALUE DUP1 ISZERO PUSH2 0x10 JUMPI PUSH1 0x0 DUP1 REVERT JUMPDEST POP PUSH2 0x1A CALLER PUSH2 0x1F JUMP JUMPDEST PUSH2 0x6F JUMP JUMPDEST PUSH1 0x0 DUP1 SLOAD PUSH1 0x1 PUSH1 0x1 PUSH1 0xA0 SHL SUB DUP4 DUP2 AND PUSH1 0x1 PUSH1 0x1 PUSH1 0xA0 SHL SUB NOT DUP4 AND DUP2 OR DUP5 SSTORE PUSH1 0x40 MLOAD SWAP2 SWAP1 SWAP3 AND SWAP3 DUP4 SWAP2 PUSH32 0x8BE0079C531659141344CD1FD0A4F28419497F9722A3DAAFE3B4186F6B6457E0 SWAP2 SWAP1 LOG3 POP POP JUMP JUMPDEST PUSH2 0x1AC9 DUP1 PUSH2 0x7E PUSH1 0x0 CODECOPY PUSH1 0x0 RETURN INVALID PUSH1 0x80 PUSH1 0x40 MSTORE PUSH1 0x4 CALLDATASIZE LT PUSH2 0x1C5 JUMPI PUSH1 0x0 CALLDATALOAD PUSH1 0xE0 SHR DUP1 PUSH4 0x8222F07D GT PUSH2 0xF7 JUMPI DUP1 PUSH4 0xBBDAA3C9 GT PUSH2 0x95 JUMPI DUP1 PUSH4 0xDF463A66 GT PUSH2 0x64 JUMPI DUP1 PUSH4 0xDF463A66 EQ PUSH2 0x64C JUMPI DUP1 PUSH4 0xE1838F8D EQ PUSH2 0x661 JUMPI DUP1 PUSH4 0xF2FDE38B EQ PUSH2 0x681 JUMPI DUP1 PUSH4 0xF9C002F7 EQ PUSH2 0x6A1 JUMPI PUSH1 0x0 DUP1 REVERT JUMPDEST DUP1 PUSH4 0xBBDAA3C9 EQ PUSH2 0x5D6 JUMPI DUP1 PUSH4 0xCE1B815F EQ PUSH2 0x5ED JUMPI DUP1 PUSH4 0xDA742228 EQ PUSH2 0x60B JUMPI DUP1 PUSH4 0xDD1BCAA1 EQ PUSH2 0x62B JUMPI PUSH1 0x0 DUP1 REVERT JUMPDEST DUP1 PUSH4 0x8DA5CB5B GT PUSH2 0xD1 JUMPI DUP1 PUSH4 0x8DA5CB5B EQ PUSH2 0x538 JUMPI DUP1 PUSH4 0x921276EA EQ PUSH2 0x556 JUMPI DUP1 PUSH4 0xB039A88F EQ PUSH2 0x578 JUMPI DUP1 PUSH4 0xB90B41CF EQ PUSH2 0x5C0 JUMPI PUSH1 0x0 DUP1 REVERT JUMPDEST DUP1 PUSH4 0x8222F07D EQ PUSH2 0x4B8 JUMPI DUP1 PUSH4 0x858437B0 EQ PUSH2 0x4E8 JUMPI DUP1 PUSH4 0x86C0A9F8 EQ PUSH2 0x518 JUMPI PUSH1 0x0 DUP1 REVERT JUMPDEST DUP1 PUSH4 0x4F28BFB9 GT PUSH2 0x164 JUMPI DUP1 PUSH4 0x715018A6 GT PUSH2 0x13E JUMPI DUP1 PUSH4 0x715018A6 EQ PUSH2 0x431 JUMPI DUP1 PUSH4 0x76FA01C3 EQ PUSH2 0x446 JUMPI DUP1 PUSH4 0x7BB05264 EQ PUSH2 0x466 JUMPI DUP1 PUSH4 0x7BDF2EC7 EQ PUSH2 0x486 JUMPI PUSH1 0x0 DUP1 REVERT JUMPDEST DUP1 PUSH4 0x4F28BFB9 EQ PUSH2 0x3CB JUMPI DUP1 PUSH4 0x4F33B4DD EQ PUSH2 0x3EC JUMPI DUP1 PUSH4 0x5C5E3DB1 EQ PUSH2 0x40D JUMPI PUSH1 0x0 DUP1 REVERT JUMPDEST DUP1 PUSH4 0xD4CA3A4 GT PUSH2 0x1A0 JUMPI DUP1 PUSH4 0xD4CA3A4 EQ PUSH2 0x32F JUMPI DUP1 PUSH4 0x12256054 EQ PUSH2 0x350 JUMPI DUP1 PUSH4 0x2D14C4B7 EQ PUSH2 0x370 JUMPI DUP1 PUSH4 0x3A0892E3 EQ PUSH2 0x390 JUMPI PUSH1 0x0 DUP1 REVERT JUMPDEST DUP1 PUSH3 0xBE5DD4 EQ PUSH2 0x2A6 JUMPI DUP1 PUSH4 0x1FFC9A7 EQ PUSH2 0x2DD JUMPI DUP1 PUSH4 0x613FEF8 EQ PUSH2 0x30D JUMPI PUSH1 0x0 DUP1 REVERT JUMPDEST CALLDATASIZE PUSH2 0x2A1 JUMPI PUSH1 0x1 SLOAD PUSH1 0x1 PUSH1 0x1 PUSH1 0xA0 SHL SUB AND PUSH2 0x227 JUMPI PUSH1 0x40 MLOAD PUSH3 0x461BCD PUSH1 0xE5 SHL DUP2 MSTORE PUSH1 0x20 PUSH1 0x4 DUP3 ADD MSTORE PUSH1 0x19 PUSH1 0x24 DUP3 ADD MSTORE PUSH32 0x72656C6179206875622061646472657373206E6F742073657400000000000000 PUSH1 0x44 DUP3 ADD MSTORE PUSH1 0x64 ADD JUMPDEST PUSH1 0x40 MLOAD DUP1 SWAP2 SUB SWAP1 REVERT JUMPDEST PUSH1 0x1 SLOAD PUSH1 0x40 MLOAD PUSH32 0xAA67C91900000000000000000000000000000000000000000000000000000000 DUP2 MSTORE ADDRESS PUSH1 0x4 DUP3 ADD MSTORE PUSH1 0x1 PUSH1 0x1 PUSH1 0xA0 SHL SUB SWAP1 SWAP2 AND SWAP1 PUSH4 0xAA67C919 SWAP1 CALLVALUE SWAP1 PUSH1 0x24 ADD PUSH1 0x0 PUSH1 0x40 MLOAD DUP1 DUP4 SUB DUP2 DUP6 DUP9 DUP1 EXTCODESIZE ISZERO DUP1 ISZERO PUSH2 0x286 JUMPI PUSH1 0x0 DUP1 REVERT JUMPDEST POP GAS CALL ISZERO DUP1 ISZERO PUSH2 0x29A JUMPI RETURNDATASIZE PUSH1 0x0 DUP1 RETURNDATACOPY RETURNDATASIZE PUSH1 0x0 REVERT JUMPDEST POP POP POP POP POP STOP JUMPDEST PUSH1 0x0 DUP1 REVERT JUMPDEST CALLVALUE DUP1 ISZERO PUSH2 0x2B2 JUMPI PUSH1 0x0 DUP1 REVERT JUMPDEST POP PUSH2 0x2C6 PUSH2 0x2C1 CALLDATASIZE PUSH1 0x4 PUSH2 0x1607 JUMP JUMPDEST PUSH2 0x6B8 JUMP JUMPDEST PUSH1 0x40 MLOAD PUSH2 0x2D4 SWAP3 SWAP2 SWAP1 PUSH2 0x1708 JUMP JUMPDEST PUSH1 0x40 MLOAD DUP1 SWAP2 SUB SWAP1 RETURN JUMPDEST CALLVALUE DUP1 ISZERO PUSH2 0x2E9 JUMPI PUSH1 0x0 DUP1 REVERT JUMPDEST POP PUSH2 0x2FD PUSH2 0x2F8 CALLDATASIZE PUSH1 0x4 PUSH2 0x1749 JUMP JUMPDEST PUSH2 0x706 JUMP JUMPDEST PUSH1 0x40 MLOAD SWAP1 ISZERO ISZERO DUP2 MSTORE PUSH1 0x20 ADD PUSH2 0x2D4 JUMP JUMPDEST CALLVALUE DUP1 ISZERO PUSH2 0x319 JUMPI PUSH1 0x0 DUP1 REVERT JUMPDEST POP PUSH2 0x32D PUSH2 0x328 CALLDATASIZE PUSH1 0x4 PUSH2 0x1787 JUMP JUMPDEST PUSH2 0x78A JUMP JUMPDEST STOP JUMPDEST CALLVALUE DUP1 ISZERO PUSH2 0x33B JUMPI PUSH1 0x0 DUP1 REVERT JUMPDEST POP PUSH1 0x2 SLOAD PUSH2 0x2FD SWAP1 PUSH1 0x1 PUSH1 0xB0 SHL SWAP1 DIV PUSH1 0xFF AND DUP2 JUMP JUMPDEST CALLVALUE DUP1 ISZERO PUSH2 0x35C JUMPI PUSH1 0x0 DUP1 REVERT JUMPDEST POP PUSH2 0x32D PUSH2 0x36B CALLDATASIZE PUSH1 0x4 PUSH2 0x1787 JUMP JUMPDEST PUSH2 0x7BD JUMP JUMPDEST CALLVALUE DUP1 ISZERO PUSH2 0x37C JUMPI PUSH1 0x0 DUP1 REVERT JUMPDEST POP PUSH2 0x32D PUSH2 0x38B CALLDATASIZE PUSH1 0x4 PUSH2 0x17C0 JUMP JUMPDEST PUSH2 0x7F0 JUMP JUMPDEST CALLVALUE DUP1 ISZERO PUSH2 0x39C JUMPI PUSH1 0x0 DUP1 REVERT JUMPDEST POP PUSH2 0x2FD PUSH2 0x3AB CALLDATASIZE PUSH1 0x4 PUSH2 0x17E5 JUMP JUMPDEST PUSH1 0x5 PUSH1 0x20 SWAP1 DUP2 MSTORE PUSH1 0x0 SWAP3 DUP4 MSTORE PUSH1 0x40 DUP1 DUP5 KECCAK256 SWAP1 SWAP2 MSTORE SWAP1 DUP3 MSTORE SWAP1 KECCAK256 SLOAD PUSH1 0xFF AND DUP2 JUMP JUMPDEST CALLVALUE DUP1 ISZERO PUSH2 0x3D7 JUMPI PUSH1 0x0 DUP1 REVERT JUMPDEST POP PUSH1 0x2 SLOAD PUSH2 0x2FD SWAP1 PUSH1 0x1 PUSH1 0xA8 SHL SWAP1 DIV PUSH1 0xFF AND DUP2 JUMP JUMPDEST CALLVALUE DUP1 ISZERO PUSH2 0x3F8 JUMPI PUSH1 0x0 DUP1 REVERT JUMPDEST POP PUSH1 0x2 SLOAD PUSH2 0x2FD SWAP1 PUSH1 0x1 PUSH1 0xB8 SHL SWAP1 DIV PUSH1 0xFF AND DUP2 JUMP JUMPDEST CALLVALUE DUP1 ISZERO PUSH2 0x419 JUMPI PUSH1 0x0 DUP1 REVERT JUMPDEST POP PUSH2 0x423 PUSH2 0x2904 DUP2 JUMP JUMPDEST PUSH1 0x40 MLOAD SWAP1 DUP2 MSTORE PUSH1 0x20 ADD PUSH2 0x2D4 JUMP JUMPDEST CALLVALUE DUP1 ISZERO PUSH2 0x43D JUMPI PUSH1 0x0 DUP1 REVERT JUMPDEST POP PUSH2 0x32D PUSH2 0x87B JUMP JUMPDEST CALLVALUE DUP1 ISZERO PUSH2 0x452 JUMPI PUSH1 0x0 DUP1 REVERT JUMPDEST POP PUSH2 0x32D PUSH2 0x461 CALLDATASIZE PUSH1 0x4 PUSH2 0x181A JUMP JUMPDEST PUSH2 0x88F JUMP JUMPDEST CALLVALUE DUP1 ISZERO PUSH2 0x472 JUMPI PUSH1 0x0 DUP1 REVERT JUMPDEST POP PUSH2 0x32D PUSH2 0x481 CALLDATASIZE PUSH1 0x4 PUSH2 0x18AA JUMP JUMPDEST PUSH2 0x89E JUMP JUMPDEST CALLVALUE DUP1 ISZERO PUSH2 0x492 JUMPI PUSH1 0x0 DUP1 REVERT JUMPDEST POP PUSH1 0x1 SLOAD PUSH1 0x1 PUSH1 0x1 PUSH1 0xA0 SHL SUB AND JUMPDEST PUSH1 0x40 MLOAD PUSH1 0x1 PUSH1 0x1 PUSH1 0xA0 SHL SUB SWAP1 SWAP2 AND DUP2 MSTORE PUSH1 0x20 ADD PUSH2 0x2D4 JUMP JUMPDEST CALLVALUE DUP1 ISZERO PUSH2 0x4C4 JUMPI PUSH1 0x0 DUP1 REVERT JUMPDEST POP PUSH2 0x2FD PUSH2 0x4D3 CALLDATASIZE PUSH1 0x4 PUSH2 0x18AA JUMP JUMPDEST PUSH1 0x3 PUSH1 0x20 MSTORE PUSH1 0x0 SWAP1 DUP2 MSTORE PUSH1 0x40 SWAP1 KECCAK256 SLOAD PUSH1 0xFF AND DUP2 JUMP JUMPDEST CALLVALUE DUP1 ISZERO PUSH2 0x4F4 JUMPI PUSH1 0x0 DUP1 REVERT JUMPDEST POP PUSH2 0x2FD PUSH2 0x503 CALLDATASIZE PUSH1 0x4 PUSH2 0x18AA JUMP JUMPDEST PUSH1 0x4 PUSH1 0x20 MSTORE PUSH1 0x0 SWAP1 DUP2 MSTORE PUSH1 0x40 SWAP1 KECCAK256 SLOAD PUSH1 0xFF AND DUP2 JUMP JUMPDEST CALLVALUE DUP1 ISZERO PUSH2 0x524 JUMPI PUSH1 0x0 DUP1 REVERT JUMPDEST POP PUSH2 0x32D PUSH2 0x533 CALLDATASIZE PUSH1 0x4 PUSH2 0x18C7 JUMP JUMPDEST PUSH2 0x954 JUMP JUMPDEST CALLVALUE DUP1 ISZERO PUSH2 0x544 JUMPI PUSH1 0x0 DUP1 REVERT JUMPDEST POP PUSH1 0x0 SLOAD PUSH1 0x1 PUSH1 0x1 PUSH1 0xA0 SHL SUB AND PUSH2 0x4A0 JUMP JUMPDEST CALLVALUE DUP1 ISZERO PUSH2 0x562 JUMPI PUSH1 0x0 DUP1 REVERT JUMPDEST POP PUSH2 0x56B PUSH2 0xA26 JUMP JUMPDEST PUSH1 0x40 MLOAD PUSH2 0x2D4 SWAP2 SWAP1 PUSH2 0x1923 JUMP JUMPDEST CALLVALUE DUP1 ISZERO PUSH2 0x584 JUMPI PUSH1 0x0 DUP1 REVERT JUMPDEST POP PUSH2 0x58D PUSH2 0xA46 JUMP JUMPDEST PUSH1 0x40 MLOAD PUSH2 0x2D4 SWAP2 SWAP1 DUP2 MLOAD DUP2 MSTORE PUSH1 0x20 DUP1 DUP4 ADD MLOAD SWAP1 DUP3 ADD MSTORE PUSH1 0x40 DUP1 DUP4 ADD MLOAD SWAP1 DUP3 ADD MSTORE PUSH1 0x60 SWAP2 DUP3 ADD MLOAD SWAP2 DUP2 ADD SWAP2 SWAP1 SWAP2 MSTORE PUSH1 0x80 ADD SWAP1 JUMP JUMPDEST CALLVALUE DUP1 ISZERO PUSH2 0x5CC JUMPI PUSH1 0x0 DUP1 REVERT JUMPDEST POP PUSH2 0x423 PUSH2 0xC350 DUP2 JUMP JUMPDEST CALLVALUE DUP1 ISZERO PUSH2 0x5E2 JUMPI PUSH1 0x0 DUP1 REVERT JUMPDEST POP PUSH2 0x423 PUSH3 0x1ADB0 DUP2 JUMP JUMPDEST CALLVALUE DUP1 ISZERO PUSH2 0x5F9 JUMPI PUSH1 0x0 DUP1 REVERT JUMPDEST POP PUSH1 0x2 SLOAD PUSH1 0x1 PUSH1 0x1 PUSH1 0xA0 SHL SUB AND PUSH2 0x4A0 JUMP JUMPDEST CALLVALUE DUP1 ISZERO PUSH2 0x617 JUMPI PUSH1 0x0 DUP1 REVERT JUMPDEST POP PUSH2 0x32D PUSH2 0x626 CALLDATASIZE PUSH1 0x4 PUSH2 0x18AA JUMP JUMPDEST PUSH2 0xAAF JUMP JUMPDEST CALLVALUE DUP1 ISZERO PUSH2 0x637 JUMPI PUSH1 0x0 DUP1 REVERT JUMPDEST POP PUSH1 0x2 SLOAD PUSH2 0x2FD SWAP1 PUSH1 0x1 PUSH1 0xA0 SHL SWAP1 DIV PUSH1 0xFF AND DUP2 JUMP JUMPDEST CALLVALUE DUP1 ISZERO PUSH2 0x658 JUMPI PUSH1 0x0 DUP1 REVERT JUMPDEST POP PUSH2 0x423 PUSH2 0xB65 JUMP JUMPDEST CALLVALUE DUP1 ISZERO PUSH2 0x66D JUMPI PUSH1 0x0 DUP1 REVERT JUMPDEST POP PUSH2 0x32D PUSH2 0x67C CALLDATASIZE PUSH1 0x4 PUSH2 0x1936 JUMP JUMPDEST PUSH2 0xB77 JUMP JUMPDEST CALLVALUE DUP1 ISZERO PUSH2 0x68D JUMPI PUSH1 0x0 DUP1 REVERT JUMPDEST POP PUSH2 0x32D PUSH2 0x69C CALLDATASIZE PUSH1 0x4 PUSH2 0x18AA JUMP JUMPDEST PUSH2 0xBC0 JUMP JUMPDEST CALLVALUE DUP1 ISZERO PUSH2 0x6AD JUMPI PUSH1 0x0 DUP1 REVERT JUMPDEST POP PUSH2 0x423 PUSH3 0x186A0 DUP2 JUMP JUMPDEST PUSH1 0x60 PUSH1 0x0 PUSH2 0x6C4 PUSH2 0xC50 JUMP JUMPDEST PUSH2 0x6CD DUP9 PUSH2 0xCAA JUMP JUMPDEST PUSH2 0x6D6 DUP9 PUSH2 0xD42 JUMP JUMPDEST PUSH2 0x6DF DUP9 PUSH2 0xD9D JUMP JUMPDEST PUSH2 0x6E9 DUP6 DUP6 PUSH2 0xE07 JUMP JUMPDEST PUSH2 0x6F7 DUP9 DUP9 DUP9 DUP9 DUP9 DUP9 PUSH2 0xE59 JUMP JUMPDEST SWAP2 POP SWAP2 POP SWAP7 POP SWAP7 SWAP5 POP POP POP POP POP JUMP JUMPDEST PUSH1 0x0 PUSH1 0x1 PUSH1 0x1 PUSH1 0xE0 SHL SUB NOT DUP3 AND PUSH32 0xE1AB2DEA00000000000000000000000000000000000000000000000000000000 EQ DUP1 PUSH2 0x769 JUMPI POP PUSH1 0x1 PUSH1 0x1 PUSH1 0xE0 SHL SUB NOT DUP3 AND PUSH32 0xE08307600000000000000000000000000000000000000000000000000000000 EQ JUMPDEST DUP1 PUSH2 0x784 JUMPI POP PUSH4 0x1FFC9A7 PUSH1 0xE0 SHL PUSH1 0x1 PUSH1 0x1 PUSH1 0xE0 SHL SUB NOT DUP4 AND EQ JUMPDEST SWAP3 SWAP2 POP POP JUMP JUMPDEST PUSH2 0x792 PUSH2 0x117F JUMP JUMPDEST PUSH1 0x1 PUSH1 0x1 PUSH1 0xA0 SHL SUB SWAP2 SWAP1 SWAP2 AND PUSH1 0x0 SWAP1 DUP2 MSTORE PUSH1 0x3 PUSH1 0x20 MSTORE PUSH1 0x40 SWAP1 KECCAK256 DUP1 SLOAD PUSH1 0xFF NOT AND SWAP2 ISZERO ISZERO SWAP2 SWAP1 SWAP2 OR SWAP1 SSTORE JUMP JUMPDEST PUSH2 0x7C5 PUSH2 0x117F JUMP JUMPDEST PUSH1 0x1 PUSH1 0x1 PUSH1 0xA0 SHL SUB SWAP2 SWAP1 SWAP2 AND PUSH1 0x0 SWAP1 DUP2 MSTORE PUSH1 0x4 PUSH1 0x20 MSTORE PUSH1 0x40 SWAP1 KECCAK256 DUP1 SLOAD PUSH1 0xFF NOT AND SWAP2 ISZERO ISZERO SWAP2 SWAP1 SWAP2 OR SWAP1 SSTORE JUMP JUMPDEST PUSH2 0x7F8 PUSH2 0x117F JUMP JUMPDEST PUSH1 0x1 SLOAD PUSH1 0x40 MLOAD PUSH32 0xF3FEF3A300000000000000000000000000000000000000000000000000000000 DUP2 MSTORE PUSH1 0x1 PUSH1 0x1 PUSH1 0xA0 SHL SUB DUP4 DUP2 AND PUSH1 0x4 DUP4 ADD MSTORE PUSH1 0x24 DUP3 ADD DUP6 SWAP1 MSTORE SWAP1 SWAP2 AND SWAP1 PUSH4 0xF3FEF3A3 SWAP1 PUSH1 0x44 ADD PUSH1 0x0 PUSH1 0x40 MLOAD DUP1 DUP4 SUB DUP2 PUSH1 0x0 DUP8 DUP1 EXTCODESIZE ISZERO DUP1 ISZERO PUSH2 0x85F JUMPI PUSH1 0x0 DUP1 REVERT JUMPDEST POP GAS CALL ISZERO DUP1 ISZERO PUSH2 0x873 JUMPI RETURNDATASIZE PUSH1 0x0 DUP1 RETURNDATACOPY RETURNDATASIZE PUSH1 0x0 REVERT JUMPDEST POP POP POP POP POP POP JUMP JUMPDEST PUSH2 0x883 PUSH2 0x117F JUMP JUMPDEST PUSH2 0x88D PUSH1 0x0 PUSH2 0x11D9 JUMP JUMPDEST JUMP JUMPDEST PUSH2 0x897 PUSH2 0xC50 JUMP JUMPDEST POP POP POP POP POP JUMP JUMPDEST PUSH2 0x8A6 PUSH2 0x117F JUMP JUMPDEST PUSH2 0x8D9 PUSH1 0x1 PUSH1 0x1 PUSH1 0xA0 SHL SUB DUP3 AND PUSH32 0xE9FB30F700000000000000000000000000000000000000000000000000000000 PUSH2 0x1236 JUMP JUMPDEST PUSH2 0x925 JUMPI PUSH1 0x40 MLOAD PUSH3 0x461BCD PUSH1 0xE5 SHL DUP2 MSTORE PUSH1 0x20 PUSH1 0x4 DUP3 ADD MSTORE PUSH1 0x1F PUSH1 0x24 DUP3 ADD MSTORE PUSH32 0x746172676574206973206E6F7420612076616C6964204952656C617948756200 PUSH1 0x44 DUP3 ADD MSTORE PUSH1 0x64 ADD PUSH2 0x21E JUMP JUMPDEST PUSH1 0x1 DUP1 SLOAD PUSH20 0xFFFFFFFFFFFFFFFFFFFFFFFFFFFFFFFFFFFFFFFF NOT AND PUSH1 0x1 PUSH1 0x1 PUSH1 0xA0 SHL SUB SWAP3 SWAP1 SWAP3 AND SWAP2 SWAP1 SWAP2 OR SWAP1 SSTORE JUMP JUMPDEST PUSH2 0x95C PUSH2 0x117F JUMP JUMPDEST PUSH1 0x2 DUP1 SLOAD PUSH32 0xFFFFFFFFFFFFFFFFFFFF0000FFFFFFFFFFFFFFFFFFFFFFFFFFFFFFFFFFFFFFFF AND PUSH1 0x1 PUSH1 0xA0 SHL SWAP6 ISZERO ISZERO SWAP6 SWAP1 SWAP6 MUL PUSH32 0xFFFFFFFFFFFFFFFFFFFF00FFFFFFFFFFFFFFFFFFFFFFFFFFFFFFFFFFFFFFFFFF AND SWAP5 SWAP1 SWAP5 OR PUSH1 0x1 PUSH1 0xA8 SHL SWAP4 ISZERO ISZERO SWAP4 SWAP1 SWAP4 MUL SWAP3 SWAP1 SWAP3 OR PUSH32 0xFFFFFFFFFFFFFFFF0000FFFFFFFFFFFFFFFFFFFFFFFFFFFFFFFFFFFFFFFFFFFF AND PUSH1 0x1 PUSH1 0xB0 SHL SWAP2 ISZERO ISZERO SWAP2 SWAP1 SWAP2 MUL PUSH32 0xFFFFFFFFFFFFFFFF00FFFFFFFFFFFFFFFFFFFFFFFFFFFFFFFFFFFFFFFFFFFFFF AND OR PUSH1 0x1 PUSH1 0xB8 SHL SWAP2 ISZERO ISZERO SWAP2 SWAP1 SWAP2 MUL OR SWAP1 SSTORE JUMP JUMPDEST PUSH1 0x60 PUSH1 0x40 MLOAD DUP1 PUSH1 0x60 ADD PUSH1 0x40 MSTORE DUP1 PUSH1 0x29 DUP2 MSTORE PUSH1 0x20 ADD PUSH2 0x1A6B PUSH1 0x29 SWAP2 CODECOPY SWAP1 POP SWAP1 JUMP JUMPDEST PUSH2 0xA71 PUSH1 0x40 MLOAD DUP1 PUSH1 0x80 ADD PUSH1 0x40 MSTORE DUP1 PUSH1 0x0 DUP2 MSTORE PUSH1 0x20 ADD PUSH1 0x0 DUP2 MSTORE PUSH1 0x20 ADD PUSH1 0x0 DUP2 MSTORE PUSH1 0x20 ADD PUSH1 0x0 DUP2 MSTORE POP SWAP1 JUMP JUMPDEST PUSH1 0x40 MLOAD DUP1 PUSH1 0x80 ADD PUSH1 0x40 MSTORE DUP1 PUSH2 0xC350 PUSH3 0x186A0 PUSH2 0xA8D SWAP2 SWAP1 PUSH2 0x197F JUMP JUMPDEST DUP2 MSTORE PUSH1 0x20 ADD PUSH3 0x186A0 DUP2 MSTORE PUSH1 0x20 ADD PUSH3 0x1ADB0 DUP2 MSTORE PUSH1 0x20 ADD PUSH2 0x2904 DUP2 MSTORE POP SWAP1 POP SWAP1 JUMP JUMPDEST PUSH2 0xAB7 PUSH2 0x117F JUMP JUMPDEST PUSH2 0xAEA PUSH1 0x1 PUSH1 0x1 PUSH1 0xA0 SHL SUB DUP3 AND PUSH32 0x25E23E6400000000000000000000000000000000000000000000000000000000 PUSH2 0x1236 JUMP JUMPDEST PUSH2 0xB36 JUMPI PUSH1 0x40 MLOAD PUSH3 0x461BCD PUSH1 0xE5 SHL DUP2 MSTORE PUSH1 0x20 PUSH1 0x4 DUP3 ADD DUP2 SWAP1 MSTORE PUSH1 0x24 DUP3 ADD MSTORE PUSH32 0x746172676574206973206E6F7420612076616C69642049466F72776172646572 PUSH1 0x44 DUP3 ADD MSTORE PUSH1 0x64 ADD PUSH2 0x21E JUMP JUMPDEST PUSH1 0x2 DUP1 SLOAD PUSH20 0xFFFFFFFFFFFFFFFFFFFFFFFFFFFFFFFFFFFFFFFF NOT AND PUSH1 0x1 PUSH1 0x1 PUSH1 0xA0 SHL SUB SWAP3 SWAP1 SWAP3 AND SWAP2 SWAP1 SWAP2 OR SWAP1 SSTORE JUMP JUMPDEST PUSH2 0xB74 PUSH2 0xC350 PUSH3 0x186A0 PUSH2 0x197F JUMP JUMPDEST DUP2 JUMP JUMPDEST PUSH2 0xB7F PUSH2 0x117F JUMP JUMPDEST PUSH1 0x1 PUSH1 0x1 PUSH1 0xA0 SHL SUB SWAP1 SWAP3 AND PUSH1 0x0 SWAP1 DUP2 MSTORE PUSH1 0x5 PUSH1 0x20 SWAP1 DUP2 MSTORE PUSH1 0x40 DUP1 DUP4 KECCAK256 PUSH1 0x1 PUSH1 0x1 PUSH1 0xE0 SHL SUB NOT SWAP1 SWAP5 AND DUP4 MSTORE SWAP3 SWAP1 MSTORE KECCAK256 DUP1 SLOAD SWAP2 ISZERO ISZERO PUSH1 0xFF NOT SWAP1 SWAP3 AND SWAP2 SWAP1 SWAP2 OR SWAP1 SSTORE JUMP JUMPDEST PUSH2 0xBC8 PUSH2 0x117F JUMP JUMPDEST PUSH1 0x1 PUSH1 0x1 PUSH1 0xA0 SHL SUB DUP2 AND PUSH2 0xC44 JUMPI PUSH1 0x40 MLOAD PUSH3 0x461BCD PUSH1 0xE5 SHL DUP2 MSTORE PUSH1 0x20 PUSH1 0x4 DUP3 ADD MSTORE PUSH1 0x26 PUSH1 0x24 DUP3 ADD MSTORE PUSH32 0x4F776E61626C653A206E6577206F776E657220697320746865207A65726F2061 PUSH1 0x44 DUP3 ADD MSTORE PUSH32 0x6464726573730000000000000000000000000000000000000000000000000000 PUSH1 0x64 DUP3 ADD MSTORE PUSH1 0x84 ADD PUSH2 0x21E JUMP JUMPDEST PUSH2 0xC4D DUP2 PUSH2 0x11D9 JUMP JUMPDEST POP JUMP JUMPDEST PUSH1 0x1 SLOAD PUSH1 0x1 PUSH1 0x1 PUSH1 0xA0 SHL SUB AND CALLER EQ PUSH2 0x88D JUMPI PUSH1 0x40 MLOAD PUSH3 0x461BCD PUSH1 0xE5 SHL DUP2 MSTORE PUSH1 0x20 PUSH1 0x4 DUP3 ADD MSTORE PUSH1 0x1E PUSH1 0x24 DUP3 ADD MSTORE PUSH32 0x63616E206F6E6C792062652063616C6C65642062792052656C61794875620000 PUSH1 0x44 DUP3 ADD MSTORE PUSH1 0x64 ADD PUSH2 0x21E JUMP JUMPDEST PUSH2 0xCB7 PUSH1 0x20 DUP3 ADD DUP3 PUSH2 0x19BE JUMP JUMPDEST PUSH2 0xCC8 SWAP1 PUSH1 0xC0 DUP2 ADD SWAP1 PUSH1 0xA0 ADD PUSH2 0x18AA JUMP JUMPDEST PUSH1 0x1 PUSH1 0x1 PUSH1 0xA0 SHL SUB AND PUSH2 0xCE3 PUSH1 0x2 SLOAD PUSH1 0x1 PUSH1 0x1 PUSH1 0xA0 SHL SUB AND SWAP1 JUMP JUMPDEST PUSH1 0x1 PUSH1 0x1 PUSH1 0xA0 SHL SUB AND EQ PUSH2 0xD39 JUMPI PUSH1 0x40 MLOAD PUSH3 0x461BCD PUSH1 0xE5 SHL DUP2 MSTORE PUSH1 0x20 PUSH1 0x4 DUP3 ADD MSTORE PUSH1 0x18 PUSH1 0x24 DUP3 ADD MSTORE PUSH32 0x466F72776172646572206973206E6F7420747275737465640000000000000000 PUSH1 0x44 DUP3 ADD MSTORE PUSH1 0x64 ADD PUSH2 0x21E JUMP JUMPDEST PUSH2 0xC4D DUP2 PUSH2 0x1259 JUMP JUMPDEST PUSH2 0xD4C DUP2 DUP1 PUSH2 0x19DE JUMP JUMPDEST PUSH1 0x40 ADD CALLDATALOAD ISZERO PUSH2 0xC4D JUMPI PUSH1 0x40 MLOAD PUSH3 0x461BCD PUSH1 0xE5 SHL DUP2 MSTORE PUSH1 0x20 PUSH1 0x4 DUP3 ADD MSTORE PUSH1 0x1C PUSH1 0x24 DUP3 ADD MSTORE PUSH32 0x76616C7565207472616E73666572206E6F7420737570706F7274656400000000 PUSH1 0x44 DUP3 ADD MSTORE PUSH1 0x64 ADD PUSH2 0x21E JUMP JUMPDEST PUSH2 0xDAA PUSH1 0x20 DUP3 ADD DUP3 PUSH2 0x19BE JUMP JUMPDEST PUSH2 0xDB8 SWAP1 PUSH1 0xC0 DUP2 ADD SWAP1 PUSH2 0x19F4 JUMP JUMPDEST ISZERO SWAP1 POP PUSH2 0xC4D JUMPI PUSH1 0x40 MLOAD PUSH3 0x461BCD PUSH1 0xE5 SHL DUP2 MSTORE PUSH1 0x20 PUSH1 0x4 DUP3 ADD MSTORE PUSH1 0x1C PUSH1 0x24 DUP3 ADD MSTORE PUSH32 0x73686F756C642068617665206E6F207061796D61737465724461746100000000 PUSH1 0x44 DUP3 ADD MSTORE PUSH1 0x64 ADD PUSH2 0x21E JUMP JUMPDEST DUP1 ISZERO PUSH2 0xE55 JUMPI PUSH1 0x40 MLOAD PUSH3 0x461BCD PUSH1 0xE5 SHL DUP2 MSTORE PUSH1 0x20 PUSH1 0x4 DUP3 ADD MSTORE PUSH1 0x1B PUSH1 0x24 DUP3 ADD MSTORE PUSH32 0x73686F756C642068617665206E6F20617070726F76616C446174610000000000 PUSH1 0x44 DUP3 ADD MSTORE PUSH1 0x64 ADD PUSH2 0x21E JUMP JUMPDEST POP POP JUMP JUMPDEST PUSH1 0x60 PUSH1 0x0 DUP4 ISZERO PUSH2 0xEAB JUMPI PUSH1 0x40 MLOAD PUSH3 0x461BCD PUSH1 0xE5 SHL DUP2 MSTORE PUSH1 0x20 PUSH1 0x4 DUP3 ADD MSTORE PUSH1 0x1C PUSH1 0x24 DUP3 ADD MSTORE PUSH32 0x617070726F76616C446174613A20696E76616C6964206C656E67746800000000 PUSH1 0x44 DUP3 ADD MSTORE PUSH1 0x64 ADD PUSH2 0x21E JUMP JUMPDEST PUSH2 0xEB8 PUSH1 0x20 DUP10 ADD DUP10 PUSH2 0x19BE JUMP JUMPDEST PUSH2 0xEC6 SWAP1 PUSH1 0xC0 DUP2 ADD SWAP1 PUSH2 0x19F4 JUMP JUMPDEST ISZERO SWAP1 POP PUSH2 0xF15 JUMPI PUSH1 0x40 MLOAD PUSH3 0x461BCD PUSH1 0xE5 SHL DUP2 MSTORE PUSH1 0x20 PUSH1 0x4 DUP3 ADD MSTORE PUSH1 0x1D PUSH1 0x24 DUP3 ADD MSTORE PUSH32 0x7061796D6173746572446174613A20696E76616C6964206C656E677468000000 PUSH1 0x44 DUP3 ADD MSTORE PUSH1 0x64 ADD PUSH2 0x21E JUMP JUMPDEST PUSH1 0x2 SLOAD PUSH1 0x1 PUSH1 0xA0 SHL SWAP1 DIV PUSH1 0xFF AND ISZERO PUSH2 0xFAE JUMPI PUSH1 0x0 PUSH2 0xF33 DUP10 DUP1 PUSH2 0x19DE JUMP JUMPDEST PUSH2 0xF41 SWAP1 PUSH1 0x20 DUP2 ADD SWAP1 PUSH2 0x18AA JUMP JUMPDEST PUSH1 0x1 PUSH1 0x1 PUSH1 0xA0 SHL SUB DUP2 AND PUSH1 0x0 SWAP1 DUP2 MSTORE PUSH1 0x3 PUSH1 0x20 MSTORE PUSH1 0x40 SWAP1 KECCAK256 SLOAD SWAP1 SWAP2 POP PUSH1 0xFF AND PUSH2 0xFAC JUMPI PUSH1 0x40 MLOAD PUSH3 0x461BCD PUSH1 0xE5 SHL DUP2 MSTORE PUSH1 0x20 PUSH1 0x4 DUP3 ADD MSTORE PUSH1 0x16 PUSH1 0x24 DUP3 ADD MSTORE PUSH32 0x73656E646572206E6F742077686974656C697374656400000000000000000000 PUSH1 0x44 DUP3 ADD MSTORE PUSH1 0x64 ADD PUSH2 0x21E JUMP JUMPDEST POP JUMPDEST PUSH1 0x2 SLOAD PUSH1 0x1 PUSH1 0xA8 SHL SWAP1 DIV PUSH1 0xFF AND ISZERO PUSH2 0x104A JUMPI PUSH1 0x0 PUSH2 0xFCC DUP10 DUP1 PUSH2 0x19DE JUMP JUMPDEST PUSH2 0xFDD SWAP1 PUSH1 0x40 DUP2 ADD SWAP1 PUSH1 0x20 ADD PUSH2 0x18AA JUMP JUMPDEST PUSH1 0x1 PUSH1 0x1 PUSH1 0xA0 SHL SUB DUP2 AND PUSH1 0x0 SWAP1 DUP2 MSTORE PUSH1 0x4 PUSH1 0x20 MSTORE PUSH1 0x40 SWAP1 KECCAK256 SLOAD SWAP1 SWAP2 POP PUSH1 0xFF AND PUSH2 0x1048 JUMPI PUSH1 0x40 MLOAD PUSH3 0x461BCD PUSH1 0xE5 SHL DUP2 MSTORE PUSH1 0x20 PUSH1 0x4 DUP3 ADD MSTORE PUSH1 0x16 PUSH1 0x24 DUP3 ADD MSTORE PUSH32 0x746172676574206E6F742077686974656C697374656400000000000000000000 PUSH1 0x44 DUP3 ADD MSTORE PUSH1 0x64 ADD PUSH2 0x21E JUMP JUMPDEST POP JUMPDEST PUSH1 0x2 SLOAD PUSH1 0x1 PUSH1 0xB0 SHL SWAP1 DIV PUSH1 0xFF AND ISZERO PUSH2 0x1155 JUMPI PUSH1 0x0 PUSH2 0x1068 DUP10 DUP1 PUSH2 0x19DE JUMP JUMPDEST PUSH2 0x1079 SWAP1 PUSH1 0x40 DUP2 ADD SWAP1 PUSH1 0x20 ADD PUSH2 0x18AA JUMP JUMPDEST SWAP1 POP PUSH1 0x0 PUSH2 0x10D2 PUSH2 0x108A DUP12 DUP1 PUSH2 0x19DE JUMP JUMPDEST PUSH2 0x1098 SWAP1 PUSH1 0xA0 DUP2 ADD SWAP1 PUSH2 0x19F4 JUMP JUMPDEST DUP1 DUP1 PUSH1 0x1F ADD PUSH1 0x20 DUP1 SWAP2 DIV MUL PUSH1 0x20 ADD PUSH1 0x40 MLOAD SWAP1 DUP2 ADD PUSH1 0x40 MSTORE DUP1 SWAP4 SWAP3 SWAP2 SWAP1 DUP2 DUP2 MSTORE PUSH1 0x20 ADD DUP4 DUP4 DUP1 DUP3 DUP5 CALLDATACOPY PUSH1 0x0 SWAP3 ADD SWAP2 SWAP1 SWAP2 MSTORE POP PUSH2 0x1470 SWAP3 POP POP POP JUMP JUMPDEST PUSH1 0x1 PUSH1 0x1 PUSH1 0xA0 SHL SUB DUP4 AND PUSH1 0x0 SWAP1 DUP2 MSTORE PUSH1 0x5 PUSH1 0x20 SWAP1 DUP2 MSTORE PUSH1 0x40 DUP1 DUP4 KECCAK256 PUSH1 0x1 PUSH1 0x1 PUSH1 0xE0 SHL SUB NOT DUP6 AND DUP5 MSTORE SWAP1 SWAP2 MSTORE SWAP1 KECCAK256 SLOAD SWAP1 SWAP2 POP PUSH1 0xFF AND PUSH2 0x1152 JUMPI PUSH1 0x40 MLOAD PUSH3 0x461BCD PUSH1 0xE5 SHL DUP2 MSTORE PUSH1 0x20 PUSH1 0x4 DUP3 ADD MSTORE PUSH1 0x16 PUSH1 0x24 DUP3 ADD MSTORE PUSH32 0x6D6574686F64206E6F742077686974656C697374656400000000000000000000 PUSH1 0x44 DUP3 ADD MSTORE PUSH1 0x64 ADD PUSH2 0x21E JUMP JUMPDEST POP POP JUMPDEST POP POP PUSH1 0x2 SLOAD PUSH1 0x40 DUP1 MLOAD PUSH1 0x20 DUP2 ADD SWAP1 SWAP2 MSTORE PUSH1 0x0 DUP2 MSTORE SWAP8 PUSH1 0x1 PUSH1 0xB8 SHL SWAP1 SWAP2 DIV PUSH1 0xFF AND SWAP7 POP SWAP5 POP POP POP POP POP JUMP JUMPDEST PUSH1 0x0 SLOAD PUSH1 0x1 PUSH1 0x1 PUSH1 0xA0 SHL SUB AND CALLER EQ PUSH2 0x88D JUMPI PUSH1 0x40 MLOAD PUSH3 0x461BCD PUSH1 0xE5 SHL DUP2 MSTORE PUSH1 0x20 PUSH1 0x4 DUP3 ADD DUP2 SWAP1 MSTORE PUSH1 0x24 DUP3 ADD MSTORE PUSH32 0x4F776E61626C653A2063616C6C6572206973206E6F7420746865206F776E6572 PUSH1 0x44 DUP3 ADD MSTORE PUSH1 0x64 ADD PUSH2 0x21E JUMP JUMPDEST PUSH1 0x0 DUP1 SLOAD PUSH1 0x1 PUSH1 0x1 PUSH1 0xA0 SHL SUB DUP4 DUP2 AND PUSH20 0xFFFFFFFFFFFFFFFFFFFFFFFFFFFFFFFFFFFFFFFF NOT DUP4 AND DUP2 OR DUP5 SSTORE PUSH1 0x40 MLOAD SWAP2 SWAP1 SWAP3 AND SWAP3 DUP4 SWAP2 PUSH32 0x8BE0079C531659141344CD1FD0A4F28419497F9722A3DAAFE3B4186F6B6457E0 SWAP2 SWAP1 LOG3 POP POP JUMP JUMPDEST PUSH1 0x0 PUSH2 0x1241 DUP4 PUSH2 0x147D JUMP JUMPDEST DUP1 ISZERO PUSH2 0x1252 JUMPI POP PUSH2 0x1252 DUP4 DUP4 PUSH2 0x14B0 JUMP JUMPDEST SWAP4 SWAP3 POP POP POP JUMP JUMPDEST PUSH1 0x0 DUP1 PUSH2 0x1266 DUP4 DUP1 PUSH2 0x19DE JUMP JUMPDEST PUSH2 0x1277 SWAP1 PUSH1 0x40 DUP2 ADD SWAP1 PUSH1 0x20 ADD PUSH2 0x18AA JUMP JUMPDEST PUSH1 0x1 PUSH1 0x1 PUSH1 0xA0 SHL SUB AND PUSH32 0x572B6C0500000000000000000000000000000000000000000000000000000000 PUSH2 0x12AE PUSH1 0x20 DUP7 ADD DUP7 PUSH2 0x19BE JUMP JUMPDEST PUSH2 0x12BF SWAP1 PUSH1 0xC0 DUP2 ADD SWAP1 PUSH1 0xA0 ADD PUSH2 0x18AA JUMP JUMPDEST PUSH1 0x40 MLOAD PUSH1 0x1 PUSH1 0x1 PUSH1 0xA0 SHL SUB SWAP1 SWAP2 AND PUSH1 0x24 DUP3 ADD MSTORE PUSH1 0x44 ADD PUSH1 0x40 DUP1 MLOAD PUSH1 0x1F NOT DUP2 DUP5 SUB ADD DUP2 MSTORE SWAP2 DUP2 MSTORE PUSH1 0x20 DUP3 ADD DUP1 MLOAD PUSH28 0xFFFFFFFFFFFFFFFFFFFFFFFFFFFFFFFFFFFFFFFFFFFFFFFFFFFFFFFF AND PUSH1 0x1 PUSH1 0x1 PUSH1 0xE0 SHL SUB NOT SWAP1 SWAP5 AND SWAP4 SWAP1 SWAP4 OR SWAP1 SWAP3 MSTORE SWAP1 MLOAD PUSH2 0x1328 SWAP2 SWAP1 PUSH2 0x1A3B JUMP JUMPDEST PUSH1 0x0 PUSH1 0x40 MLOAD DUP1 DUP4 SUB DUP2 DUP6 GAS STATICCALL SWAP2 POP POP RETURNDATASIZE DUP1 PUSH1 0x0 DUP2 EQ PUSH2 0x1363 JUMPI PUSH1 0x40 MLOAD SWAP2 POP PUSH1 0x1F NOT PUSH1 0x3F RETURNDATASIZE ADD AND DUP3 ADD PUSH1 0x40 MSTORE RETURNDATASIZE DUP3 MSTORE RETURNDATASIZE PUSH1 0x0 PUSH1 0x20 DUP5 ADD RETURNDATACOPY PUSH2 0x1368 JUMP JUMPDEST PUSH1 0x60 SWAP2 POP JUMPDEST POP SWAP2 POP SWAP2 POP DUP2 PUSH2 0x13BA JUMPI PUSH1 0x40 MLOAD PUSH3 0x461BCD PUSH1 0xE5 SHL DUP2 MSTORE PUSH1 0x20 PUSH1 0x4 DUP3 ADD MSTORE PUSH1 0x1C PUSH1 0x24 DUP3 ADD MSTORE PUSH32 0x697354727573746564466F727761726465723A20726576657274656400000000 PUSH1 0x44 DUP3 ADD MSTORE PUSH1 0x64 ADD PUSH2 0x21E JUMP JUMPDEST DUP1 MLOAD PUSH1 0x20 EQ PUSH2 0x140B JUMPI PUSH1 0x40 MLOAD PUSH3 0x461BCD PUSH1 0xE5 SHL DUP2 MSTORE PUSH1 0x20 PUSH1 0x4 DUP3 ADD DUP2 SWAP1 MSTORE PUSH1 0x24 DUP3 ADD MSTORE PUSH32 0x697354727573746564466F727761726465723A2062616420726573706F6E7365 PUSH1 0x44 DUP3 ADD MSTORE PUSH1 0x64 ADD PUSH2 0x21E JUMP JUMPDEST DUP1 DUP1 PUSH1 0x20 ADD SWAP1 MLOAD DUP2 ADD SWAP1 PUSH2 0x141F SWAP2 SWAP1 PUSH2 0x1A4D JUMP JUMPDEST PUSH2 0x146B JUMPI PUSH1 0x40 MLOAD PUSH3 0x461BCD PUSH1 0xE5 SHL DUP2 MSTORE PUSH1 0x20 PUSH1 0x4 DUP3 ADD MSTORE PUSH1 0x1F PUSH1 0x24 DUP3 ADD MSTORE PUSH32 0x696E76616C696420666F7277617264657220666F7220726563697069656E7400 PUSH1 0x44 DUP3 ADD MSTORE PUSH1 0x64 ADD PUSH2 0x21E JUMP JUMPDEST POP POP POP JUMP JUMPDEST PUSH1 0x0 PUSH2 0x784 DUP3 PUSH1 0x0 PUSH2 0x154E JUMP JUMPDEST PUSH1 0x0 PUSH2 0x1490 DUP3 PUSH4 0x1FFC9A7 PUSH1 0xE0 SHL PUSH2 0x14B0 JUMP JUMPDEST DUP1 ISZERO PUSH2 0x784 JUMPI POP PUSH2 0x14A9 DUP3 PUSH1 0x1 PUSH1 0x1 PUSH1 0xE0 SHL SUB NOT PUSH2 0x14B0 JUMP JUMPDEST ISZERO SWAP3 SWAP2 POP POP JUMP JUMPDEST PUSH1 0x40 DUP1 MLOAD PUSH1 0x1 PUSH1 0x1 PUSH1 0xE0 SHL SUB NOT DUP4 AND PUSH1 0x24 DUP1 DUP4 ADD SWAP2 SWAP1 SWAP2 MSTORE DUP3 MLOAD DUP1 DUP4 SUB SWAP1 SWAP2 ADD DUP2 MSTORE PUSH1 0x44 SWAP1 SWAP2 ADD SWAP1 SWAP2 MSTORE PUSH1 0x20 DUP1 DUP3 ADD DUP1 MLOAD PUSH28 0xFFFFFFFFFFFFFFFFFFFFFFFFFFFFFFFFFFFFFFFFFFFFFFFFFFFFFFFF AND PUSH4 0x1FFC9A7 PUSH1 0xE0 SHL OR DUP2 MSTORE DUP3 MLOAD PUSH1 0x0 SWAP4 SWAP3 DUP5 SWAP3 DUP4 SWAP3 DUP4 SWAP3 SWAP2 DUP4 SWAP2 SWAP1 DUP11 PUSH2 0x7530 STATICCALL SWAP3 POP RETURNDATASIZE SWAP2 POP PUSH1 0x0 MLOAD SWAP1 POP DUP3 DUP1 ISZERO PUSH2 0x1537 JUMPI POP PUSH1 0x20 DUP3 LT ISZERO JUMPDEST DUP1 ISZERO PUSH2 0x1543 JUMPI POP PUSH1 0x0 DUP2 GT JUMPDEST SWAP8 SWAP7 POP POP POP POP POP POP POP JUMP JUMPDEST PUSH1 0x0 PUSH2 0x155B DUP3 PUSH1 0x4 PUSH2 0x197F JUMP JUMPDEST DUP4 MLOAD LT ISZERO PUSH2 0x15AB JUMPI PUSH1 0x40 MLOAD PUSH3 0x461BCD PUSH1 0xE5 SHL DUP2 MSTORE PUSH1 0x20 PUSH1 0x4 DUP3 ADD MSTORE PUSH1 0x1A PUSH1 0x24 DUP3 ADD MSTORE PUSH32 0x726561644279746573343A206461746120746F6F2073686F7274000000000000 PUSH1 0x44 DUP3 ADD MSTORE PUSH1 0x64 ADD PUSH2 0x21E JUMP JUMPDEST POP ADD PUSH1 0x20 ADD MLOAD PUSH1 0x1 PUSH1 0x1 PUSH1 0xE0 SHL SUB NOT AND SWAP1 JUMP JUMPDEST PUSH1 0x0 DUP1 DUP4 PUSH1 0x1F DUP5 ADD SLT PUSH2 0x15D0 JUMPI PUSH1 0x0 DUP1 REVERT JUMPDEST POP DUP2 CALLDATALOAD PUSH8 0xFFFFFFFFFFFFFFFF DUP2 GT ISZERO PUSH2 0x15E8 JUMPI PUSH1 0x0 DUP1 REVERT JUMPDEST PUSH1 0x20 DUP4 ADD SWAP2 POP DUP4 PUSH1 0x20 DUP3 DUP6 ADD ADD GT ISZERO PUSH2 0x1600 JUMPI PUSH1 0x0 DUP1 REVERT JUMPDEST SWAP3 POP SWAP3 SWAP1 POP JUMP JUMPDEST PUSH1 0x0 DUP1 PUSH1 0x0 DUP1 PUSH1 0x0 DUP1 PUSH1 0x80 DUP8 DUP10 SUB SLT ISZERO PUSH2 0x1620 JUMPI PUSH1 0x0 DUP1 REVERT JUMPDEST DUP7 CALLDATALOAD PUSH8 0xFFFFFFFFFFFFFFFF DUP1 DUP3 GT ISZERO PUSH2 0x1638 JUMPI PUSH1 0x0 DUP1 REVERT JUMPDEST SWAP1 DUP9 ADD SWAP1 PUSH1 0x40 DUP3 DUP12 SUB SLT ISZERO PUSH2 0x164C JUMPI PUSH1 0x0 DUP1 REVERT JUMPDEST SWAP1 SWAP7 POP PUSH1 0x20 DUP9 ADD CALLDATALOAD SWAP1 DUP1 DUP3 GT ISZERO PUSH2 0x1662 JUMPI PUSH1 0x0 DUP1 REVERT JUMPDEST PUSH2 0x166E DUP11 DUP4 DUP12 ADD PUSH2 0x15BE JUMP JUMPDEST SWAP1 SWAP8 POP SWAP6 POP PUSH1 0x40 DUP10 ADD CALLDATALOAD SWAP2 POP DUP1 DUP3 GT ISZERO PUSH2 0x1687 JUMPI PUSH1 0x0 DUP1 REVERT JUMPDEST POP PUSH2 0x1694 DUP10 DUP3 DUP11 ADD PUSH2 0x15BE JUMP JUMPDEST SWAP8 SWAP11 SWAP7 SWAP10 POP SWAP5 SWAP8 SWAP5 SWAP7 SWAP6 PUSH1 0x60 SWAP1 SWAP6 ADD CALLDATALOAD SWAP5 SWAP4 POP POP POP POP JUMP JUMPDEST PUSH1 0x0 JUMPDEST DUP4 DUP2 LT ISZERO PUSH2 0x16C7 JUMPI DUP2 DUP2 ADD MLOAD DUP4 DUP3 ADD MSTORE PUSH1 0x20 ADD PUSH2 0x16AF JUMP JUMPDEST DUP4 DUP2 GT ISZERO PUSH2 0x16D6 JUMPI PUSH1 0x0 DUP5 DUP5 ADD MSTORE JUMPDEST POP POP POP POP JUMP JUMPDEST PUSH1 0x0 DUP2 MLOAD DUP1 DUP5 MSTORE PUSH2 0x16F4 DUP2 PUSH1 0x20 DUP7 ADD PUSH1 0x20 DUP7 ADD PUSH2 0x16AC JUMP JUMPDEST PUSH1 0x1F ADD PUSH1 0x1F NOT AND SWAP3 SWAP1 SWAP3 ADD PUSH1 0x20 ADD SWAP3 SWAP2 POP POP JUMP JUMPDEST PUSH1 0x40 DUP2 MSTORE PUSH1 0x0 PUSH2 0x171B PUSH1 0x40 DUP4 ADD DUP6 PUSH2 0x16DC JUMP JUMPDEST SWAP1 POP DUP3 ISZERO ISZERO PUSH1 0x20 DUP4 ADD MSTORE SWAP4 SWAP3 POP POP POP JUMP JUMPDEST DUP1 CALLDATALOAD PUSH1 0x1 PUSH1 0x1 PUSH1 0xE0 SHL SUB NOT DUP2 AND DUP2 EQ PUSH2 0x1744 JUMPI PUSH1 0x0 DUP1 REVERT JUMPDEST SWAP2 SWAP1 POP JUMP JUMPDEST PUSH1 0x0 PUSH1 0x20 DUP3 DUP5 SUB SLT ISZERO PUSH2 0x175B JUMPI PUSH1 0x0 DUP1 REVERT JUMPDEST PUSH2 0x1252 DUP3 PUSH2 0x172C JUMP JUMPDEST PUSH1 0x1 PUSH1 0x1 PUSH1 0xA0 SHL SUB DUP2 AND DUP2 EQ PUSH2 0xC4D JUMPI PUSH1 0x0 DUP1 REVERT JUMPDEST DUP1 ISZERO ISZERO DUP2 EQ PUSH2 0xC4D JUMPI PUSH1 0x0 DUP1 REVERT JUMPDEST PUSH1 0x0 DUP1 PUSH1 0x40 DUP4 DUP6 SUB SLT ISZERO PUSH2 0x179A JUMPI PUSH1 0x0 DUP1 REVERT JUMPDEST DUP3 CALLDATALOAD PUSH2 0x17A5 DUP2 PUSH2 0x1764 JUMP JUMPDEST SWAP2 POP PUSH1 0x20 DUP4 ADD CALLDATALOAD PUSH2 0x17B5 DUP2 PUSH2 0x1779 JUMP JUMPDEST DUP1 SWAP2 POP POP SWAP3 POP SWAP3 SWAP1 POP JUMP JUMPDEST PUSH1 0x0 DUP1 PUSH1 0x40 DUP4 DUP6 SUB SLT ISZERO PUSH2 0x17D3 JUMPI PUSH1 0x0 DUP1 REVERT JUMPDEST DUP3 CALLDATALOAD SWAP2 POP PUSH1 0x20 DUP4 ADD CALLDATALOAD PUSH2 0x17B5 DUP2 PUSH2 0x1764 JUMP JUMPDEST PUSH1 0x0 DUP1 PUSH1 0x40 DUP4 DUP6 SUB SLT ISZERO PUSH2 0x17F8 JUMPI PUSH1 0x0 DUP1 REVERT JUMPDEST DUP3 CALLDATALOAD PUSH2 0x1803 DUP2 PUSH2 0x1764 JUMP JUMPDEST SWAP2 POP PUSH2 0x1811 PUSH1 0x20 DUP5 ADD PUSH2 0x172C JUMP JUMPDEST SWAP1 POP SWAP3 POP SWAP3 SWAP1 POP JUMP JUMPDEST PUSH1 0x0 DUP1 PUSH1 0x0 DUP1 PUSH1 0x0 PUSH1 0x80 DUP7 DUP9 SUB SLT ISZERO PUSH2 0x1832 JUMPI PUSH1 0x0 DUP1 REVERT JUMPDEST DUP6 CALLDATALOAD PUSH8 0xFFFFFFFFFFFFFFFF DUP1 DUP3 GT ISZERO PUSH2 0x184A JUMPI PUSH1 0x0 DUP1 REVERT JUMPDEST PUSH2 0x1856 DUP10 DUP4 DUP11 ADD PUSH2 0x15BE JUMP JUMPDEST SWAP1 SWAP8 POP SWAP6 POP PUSH1 0x20 DUP9 ADD CALLDATALOAD SWAP2 POP PUSH2 0x186B DUP3 PUSH2 0x1779 JUMP JUMPDEST SWAP1 SWAP4 POP PUSH1 0x40 DUP8 ADD CALLDATALOAD SWAP3 POP PUSH1 0x60 DUP8 ADD CALLDATALOAD SWAP1 DUP1 DUP3 GT ISZERO PUSH2 0x1888 JUMPI PUSH1 0x0 DUP1 REVERT JUMPDEST POP DUP7 ADD PUSH2 0x100 DUP2 DUP10 SUB SLT ISZERO PUSH2 0x189C JUMPI PUSH1 0x0 DUP1 REVERT JUMPDEST DUP1 SWAP2 POP POP SWAP3 SWAP6 POP SWAP3 SWAP6 SWAP1 SWAP4 POP JUMP JUMPDEST PUSH1 0x0 PUSH1 0x20 DUP3 DUP5 SUB SLT ISZERO PUSH2 0x18BC JUMPI PUSH1 0x0 DUP1 REVERT JUMPDEST DUP2 CALLDATALOAD PUSH2 0x1252 DUP2 PUSH2 0x1764 JUMP JUMPDEST PUSH1 0x0 DUP1 PUSH1 0x0 DUP1 PUSH1 0x80 DUP6 DUP8 SUB SLT ISZERO PUSH2 0x18DD JUMPI PUSH1 0x0 DUP1 REVERT JUMPDEST DUP5 CALLDATALOAD PUSH2 0x18E8 DUP2 PUSH2 0x1779 JUMP JUMPDEST SWAP4 POP PUSH1 0x20 DUP6 ADD CALLDATALOAD PUSH2 0x18F8 DUP2 PUSH2 0x1779 JUMP JUMPDEST SWAP3 POP PUSH1 0x40 DUP6 ADD CALLDATALOAD PUSH2 0x1908 DUP2 PUSH2 0x1779 JUMP JUMPDEST SWAP2 POP PUSH1 0x60 DUP6 ADD CALLDATALOAD PUSH2 0x1918 DUP2 PUSH2 0x1779 JUMP JUMPDEST SWAP4 SWAP7 SWAP3 SWAP6 POP SWAP1 SWAP4 POP POP JUMP JUMPDEST PUSH1 0x20 DUP2 MSTORE PUSH1 0x0 PUSH2 0x1252 PUSH1 0x20 DUP4 ADD DUP5 PUSH2 0x16DC JUMP JUMPDEST PUSH1 0x0 DUP1 PUSH1 0x0 PUSH1 0x60 DUP5 DUP7 SUB SLT ISZERO PUSH2 0x194B JUMPI PUSH1 0x0 DUP1 REVERT JUMPDEST DUP4 CALLDATALOAD PUSH2 0x1956 DUP2 PUSH2 0x1764 JUMP JUMPDEST SWAP3 POP PUSH2 0x1964 PUSH1 0x20 DUP6 ADD PUSH2 0x172C JUMP JUMPDEST SWAP2 POP PUSH1 0x40 DUP5 ADD CALLDATALOAD PUSH2 0x1974 DUP2 PUSH2 0x1779 JUMP JUMPDEST DUP1 SWAP2 POP POP SWAP3 POP SWAP3 POP SWAP3 JUMP JUMPDEST PUSH1 0x0 DUP3 NOT DUP3 GT ISZERO PUSH2 0x19B9 JUMPI PUSH32 0x4E487B7100000000000000000000000000000000000000000000000000000000 PUSH1 0x0 MSTORE PUSH1 0x11 PUSH1 0x4 MSTORE PUSH1 0x24 PUSH1 0x0 REVERT JUMPDEST POP ADD SWAP1 JUMP JUMPDEST PUSH1 0x0 DUP3 CALLDATALOAD PUSH1 0xFE NOT DUP4 CALLDATASIZE SUB ADD DUP2 SLT PUSH2 0x19D4 JUMPI PUSH1 0x0 DUP1 REVERT JUMPDEST SWAP2 SWAP1 SWAP2 ADD SWAP3 SWAP2 POP POP JUMP JUMPDEST PUSH1 0x0 DUP3 CALLDATALOAD PUSH1 0xDE NOT DUP4 CALLDATASIZE SUB ADD DUP2 SLT PUSH2 0x19D4 JUMPI PUSH1 0x0 DUP1 REVERT JUMPDEST PUSH1 0x0 DUP1 DUP4 CALLDATALOAD PUSH1 0x1E NOT DUP5 CALLDATASIZE SUB ADD DUP2 SLT PUSH2 0x1A0B JUMPI PUSH1 0x0 DUP1 REVERT JUMPDEST DUP4 ADD DUP1 CALLDATALOAD SWAP2 POP PUSH8 0xFFFFFFFFFFFFFFFF DUP3 GT ISZERO PUSH2 0x1A26 JUMPI PUSH1 0x0 DUP1 REVERT JUMPDEST PUSH1 0x20 ADD SWAP2 POP CALLDATASIZE DUP2 SWAP1 SUB DUP3 SGT ISZERO PUSH2 0x1600 JUMPI PUSH1 0x0 DUP1 REVERT JUMPDEST PUSH1 0x0 DUP3 MLOAD PUSH2 0x19D4 DUP2 DUP5 PUSH1 0x20 DUP8 ADD PUSH2 0x16AC JUMP JUMPDEST PUSH1 0x0 PUSH1 0x20 DUP3 DUP5 SUB SLT ISZERO PUSH2 0x1A5F JUMPI PUSH1 0x0 DUP1 REVERT JUMPDEST DUP2 MLOAD PUSH2 0x1252 DUP2 PUSH2 0x1779 JUMP INVALID CALLER 0x2E ADDRESS 0x2E ADDRESS 0x2D PUSH3 0x657461 0x2E CALLER 0x2B PUSH16 0x70656E67736E2E77686974656C697374 0x2E PUSH10 0x7061796D6173746572A2 PUSH5 0x6970667358 0x22 SLT KECCAK256 0xE6 DUP1 0x24 0xCB 0xD0 RETURNDATASIZE DUP2 0xE1 PUSH3 0x69C36C 0xD4 CALLDATACOPY MOD 0x2C 0x28 DUP10 PUSH20 0x7C92C6B4E27D94AEBC932B732064736F6C634300 ADDMOD ADDMOD STOP CALLER "},"gasEstimates":{"creation":{"codeDepositCost":"1371400","executionCost":"27272","totalCost":"1398672"},"external":{"CALLDATA_SIZE_LIMIT()":"285","FORWARDER_HUB_OVERHEAD()":"306","PAYMASTER_ACCEPTANCE_BUDGET()":"318","POST_RELAYED_CALL_GAS_LIMIT()":"240","PRE_RELAYED_CALL_GAS_LIMIT()":"305","getGasAndDataLimits()":"681","getRelayHub()":"2431","getTrustedForwarder()":"2398","methodWhitelist(address,bytes4)":"2814","owner()":"2376","postRelayedCall(bytes,bool,uint256,(uint256,uint256,uint256,address,address,address,bytes,uint256))":"2980","preRelayedCall(((address,address,uint256,uint256,uint256,bytes,uint256),(uint256,uint256,uint256,address,address,address,bytes,uint256)),bytes,bytes,uint256)":"infinite","renounceOwnership()":"infinite","senderWhitelist(address)":"2571","setConfiguration(bool,bool,bool,bool)":"infinite","setRelayHub(address)":"infinite","setTrustedForwarder(address)":"infinite","supportsInterface(bytes4)":"584","targetWhitelist(address)":"2593","transferOwnership(address)":"infinite","useMethodWhitelist()":"2373","useRejectOnRecipientRevert()":"2395","useSenderWhitelist()":"2438","useTargetWhitelist()":"2373","versionPaymaster()":"infinite","whitelistMethod(address,bytes4,bool)":"infinite","whitelistSender(address,bool)":"infinite","whitelistTarget(address,bool)":"infinite","withdrawRelayHubDepositTo(uint256,address)":"infinite"},"internal":{"_postRelayedCall(bytes calldata,bool,uint256,struct GsnTypes.RelayData calldata)":"infinite","_preRelayedCall(struct GsnTypes.RelayRequest calldata,bytes calldata,bytes calldata,uint256)":"infinite"}},"methodIdentifiers":{"CALLDATA_SIZE_LIMIT()":"5c5e3db1","FORWARDER_HUB_OVERHEAD()":"b90b41cf","PAYMASTER_ACCEPTANCE_BUDGET()":"df463a66","POST_RELAYED_CALL_GAS_LIMIT()":"bbdaa3c9","PRE_RELAYED_CALL_GAS_LIMIT()":"f9c002f7","getGasAndDataLimits()":"b039a88f","getRelayHub()":"7bdf2ec7","getTrustedForwarder()":"ce1b815f","methodWhitelist(address,bytes4)":"3a0892e3","owner()":"8da5cb5b","postRelayedCall(bytes,bool,uint256,(uint256,uint256,uint256,address,address,address,bytes,uint256))":"76fa01c3","preRelayedCall(((address,address,uint256,uint256,uint256,bytes,uint256),(uint256,uint256,uint256,address,address,address,bytes,uint256)),bytes,bytes,uint256)":"00be5dd4","renounceOwnership()":"715018a6","senderWhitelist(address)":"8222f07d","setConfiguration(bool,bool,bool,bool)":"86c0a9f8","setRelayHub(address)":"7bb05264","setTrustedForwarder(address)":"da742228","supportsInterface(bytes4)":"01ffc9a7","targetWhitelist(address)":"858437b0","transferOwnership(address)":"f2fde38b","useMethodWhitelist()":"0d4ca3a4","useRejectOnRecipientRevert()":"4f33b4dd","useSenderWhitelist()":"dd1bcaa1","useTargetWhitelist()":"4f28bfb9","versionPaymaster()":"921276ea","whitelistMethod(address,bytes4,bool)":"e1838f8d","whitelistSender(address,bool)":"0613fef8","whitelistTarget(address,bool)":"12256054","withdrawRelayHubDepositTo(uint256,address)":"2d14c4b7"}},"storageLayout":{"storage":[{"astId":2096,"contract":"@opengsn/paymasters/contracts/WhitelistPaymaster.sol:WhitelistPaymaster","label":"_owner","offset":0,"slot":"0","type":"t_address"},{"astId":23,"contract":"@opengsn/paymasters/contracts/WhitelistPaymaster.sol:WhitelistPaymaster","label":"relayHub","offset":0,"slot":"1","type":"t_contract(IRelayHub)955"},{"astId":25,"contract":"@opengsn/paymasters/contracts/WhitelistPaymaster.sol:WhitelistPaymaster","label":"_trustedForwarder","offset":0,"slot":"2","type":"t_address"},{"astId":1853,"contract":"@opengsn/paymasters/contracts/WhitelistPaymaster.sol:WhitelistPaymaster","label":"useSenderWhitelist","offset":20,"slot":"2","type":"t_bool"},{"astId":1855,"contract":"@opengsn/paymasters/contracts/WhitelistPaymaster.sol:WhitelistPaymaster","label":"useTargetWhitelist","offset":21,"slot":"2","type":"t_bool"},{"astId":1857,"contract":"@opengsn/paymasters/contracts/WhitelistPaymaster.sol:WhitelistPaymaster","label":"useMethodWhitelist","offset":22,"slot":"2","type":"t_bool"},{"astId":1859,"contract":"@opengsn/paymasters/contracts/WhitelistPaymaster.sol:WhitelistPaymaster","label":"useRejectOnRecipientRevert","offset":23,"slot":"2","type":"t_bool"},{"astId":1863,"contract":"@opengsn/paymasters/contracts/WhitelistPaymaster.sol:WhitelistPaymaster","label":"senderWhitelist","offset":0,"slot":"3","type":"t_mapping(t_address,t_bool)"},{"astId":1867,"contract":"@opengsn/paymasters/contracts/WhitelistPaymaster.sol:WhitelistPaymaster","label":"targetWhitelist","offset":0,"slot":"4","type":"t_mapping(t_address,t_bool)"},{"astId":1873,"contract":"@opengsn/paymasters/contracts/WhitelistPaymaster.sol:WhitelistPaymaster","label":"methodWhitelist","offset":0,"slot":"5","type":"t_mapping(t_address,t_mapping(t_bytes4,t_bool))"}],"types":{"t_address":{"encoding":"inplace","label":"address","numberOfBytes":"20"},"t_bool":{"encoding":"inplace","label":"bool","numberOfBytes":"1"},"t_bytes4":{"encoding":"inplace","label":"bytes4","numberOfBytes":"4"},"t_contract(IRelayHub)955":{"encoding":"inplace","label":"contract IRelayHub","numberOfBytes":"20"},"t_mapping(t_address,t_bool)":{"encoding":"mapping","key":"t_address","label":"mapping(address => bool)","numberOfBytes":"32","value":"t_bool"},"t_mapping(t_address,t_mapping(t_bytes4,t_bool))":{"encoding":"mapping","key":"t_address","label":"mapping(address => mapping(bytes4 => bool))","numberOfBytes":"32","value":"t_mapping(t_bytes4,t_bool)"},"t_mapping(t_bytes4,t_bool)":{"encoding":"mapping","key":"t_bytes4","label":"mapping(bytes4 => bool)","numberOfBytes":"32","value":"t_bool"}}},"userdoc":{"kind":"user","methods":{"getGasAndDataLimits()":{"notice":"Return the Gas Limits for Paymaster's functions and maximum msg.data length values for this Paymaster. This function allows different paymasters to have different properties without changes to the RelayHub."},"getTrustedForwarder()":{"notice":":warning: **Warning** :warning: using incorrect Forwarder may cause the Paymaster to agreeing to pay for invalid transactions."},"postRelayedCall(bytes,bool,uint256,(uint256,uint256,uint256,address,address,address,bytes,uint256))":{"notice":"This method is called after the actual relayed function call. It may be used to record the transaction (e.g. charge the caller by some contract logic) for this call. Revert in this functions causes a revert of the client's relayed call (and preRelayedCall(), but the Paymaster is still committed to pay the relay for the entire transaction."},"preRelayedCall(((address,address,uint256,uint256,uint256,bytes,uint256),(uint256,uint256,uint256,address,address,address,bytes,uint256)),bytes,bytes,uint256)":{"notice":"Called by the Relay in view mode and later by the `RelayHub` on-chain to validate that the Paymaster agrees to pay for this call. The request is considered to be rejected by the Paymaster in one of the following conditions:  - `preRelayedCall()` method reverts  - the `Forwarder` reverts because of nonce or signature error  - the `Paymaster` returned `rejectOnRecipientRevert: true` and the recipient contract reverted    (and all that did not consume more than `acceptanceBudget` gas). In any of the above cases, all Paymaster calls and the recipient call are reverted. In any other case the Paymaster will pay for the gas cost of the transaction. Note that even if `postRelayedCall` is reverted the Paymaster will be charged."},"setRelayHub(address)":{"notice":"The owner of the Paymaster can change the instance of the RelayHub this Paymaster works with. :warning: **Warning** :warning: The deposit on the previous RelayHub must be withdrawn first."},"setTrustedForwarder(address)":{"notice":"The owner of the Paymaster can change the instance of the Forwarder this Paymaster works with.the Recipients must trust this Forwarder as well in order for the configuration to remain functional."},"withdrawRelayHubDepositTo(uint256,address)":{"notice":"Withdraw deposit from the RelayHub."}},"notice":"A sample paymaster that has whitelists for senders, targets and methods. - if at least one sender is whitelisted, then ONLY whitelisted senders are allowed. - if at least one target is whitelisted, then ONLY whitelisted targets are allowed.","version":1}}}}